{
	"data": {
		"bytecode": {
			"linkReferences": {
				"remix_tests.sol": {
					"Assert": [
						{
							"length": 20,
							"start": 152
						},
						{
							"length": 20,
							"start": 421
						},
						{
							"length": 20,
							"start": 937
						}
					]
				}
			},
			"object": "608060405234801561000f575f80fd5b506132f78061001d5f395ff3fe60806040526004361062000037575f3560e01c8063218e00ff146200003b5780637fea0d4b14620000545780639642ddaf146200006d575b5f80fd5b34801562000047575f80fd5b506200005262000079565b005b34801562000060575f80fd5b506200006b62000295565b005b62000077620002fe565b005b73__$acbfb1c35000d78352310b16a054a6b106$__63e8c2cb165f8054906101000a900473ffffffffffffffffffffffffffffffffffffffff1673ffffffffffffffffffffffffffffffffffffffff166306fdde036040518163ffffffff1660e01b81526004015f60405180830381865afa158015620000fb573d5f803e3d5ffd5b505050506040513d5f823e3d601f19601f8201168201806040525081019062000125919062000639565b6040518263ffffffff1660e01b81526004016200014391906200077e565b602060405180830381865af41580156200015f573d5f803e3d5ffd5b505050506040513d601f19601f8201168201806040525081019062000185919062000804565b5073__$acbfb1c35000d78352310b16a054a6b106$__63e8c2cb165f8054906101000a900473ffffffffffffffffffffffffffffffffffffffff1673ffffffffffffffffffffffffffffffffffffffff166395d89b416040518163ffffffff1660e01b81526004015f60405180830381865afa15801562000208573d5f803e3d5ffd5b505050506040513d5f823e3d601f19601f8201168201806040525081019062000232919062000639565b6040518263ffffffff1660e01b8152600401620002509190620008d0565b602060405180830381865af41580156200026c573d5f803e3d5ffd5b505050506040513d601f19601f8201168201806040525081019062000292919062000804565b50565b604051620002a390620004a6565b604051809103905ff080158015620002bd573d5f803e3d5ffd5b505f806101000a81548173ffffffffffffffffffffffffffffffffffffffff021916908373ffffffffffffffffffffffffffffffffffffffff160217905550565b5f8054906101000a900473ffffffffffffffffffffffffffffffffffffffff1673ffffffffffffffffffffffffffffffffffffffff1663a0712d683460016040518363ffffffff1660e01b81526004016200035a91906200096f565b5f604051808303818588803b15801562000372575f80fd5b505af115801562000385573d5f803e3d5ffd5b505050505073__$acbfb1c35000d78352310b16a054a6b106$__63abcd79605f8054906101000a900473ffffffffffffffffffffffffffffffffffffffff1673ffffffffffffffffffffffffffffffffffffffff166370a08231306040518263ffffffff1660e01b8152600401620003fe9190620009cd565b602060405180830381865afa1580156200041a573d5f803e3d5ffd5b505050506040513d601f19601f8201168201806040525081019062000440919062000a17565b60016040518363ffffffff1660e01b81526004016200046192919062000ab7565b602060405180830381865af41580156200047d573d5f803e3d5ffd5b505050506040513d601f19601f82011682018060405250810190620004a3919062000804565b50565b6127ca8062000af883390190565b5f604051905090565b5f80fd5b5f80fd5b5f80fd5b5f80fd5b5f601f19601f8301169050919050565b7f4e487b71000000000000000000000000000000000000000000000000000000005f52604160045260245ffd5b6200051582620004cd565b810181811067ffffffffffffffff82111715620005375762000536620004dd565b5b80604052505050565b5f6200054b620004b4565b90506200055982826200050a565b919050565b5f67ffffffffffffffff8211156200057b576200057a620004dd565b5b6200058682620004cd565b9050602081019050919050565b5f5b83811015620005b257808201518184015260208101905062000595565b5f8484015250505050565b5f620005d3620005cd846200055e565b62000540565b905082815260208101848484011115620005f257620005f1620004c9565b5b620005ff84828562000593565b509392505050565b5f82601f8301126200061e576200061d620004c5565b5b815162000630848260208601620005bd565b91505092915050565b5f60208284031215620006515762000650620004bd565b5b5f82015167ffffffffffffffff811115620006715762000670620004c1565b5b6200067f8482850162000607565b91505092915050565b5f81519050919050565b5f82825260208201905092915050565b5f620006ae8262000688565b620006ba818562000692565b9350620006cc81856020860162000593565b620006d781620004cd565b840191505092915050565b7f4d79546f6b656e000000000000000000000000000000000000000000000000005f82015250565b5f6200071860078362000692565b91506200072582620006e2565b602082019050919050565b7f746f6b656e206e616d6520646964206e6f74206d6174636800000000000000005f82015250565b5f6200076660188362000692565b9150620007738262000730565b602082019050919050565b5f6060820190508181035f830152620007988184620006a2565b90508181036020830152620007ad816200070a565b90508181036040830152620007c28162000758565b905092915050565b5f8115159050919050565b620007e081620007ca565b8114620007eb575f80fd5b50565b5f81519050620007fe81620007d5565b92915050565b5f602082840312156200081c576200081b620004bd565b5b5f6200082b84828501620007ee565b91505092915050565b7f4d544b00000000000000000000000000000000000000000000000000000000005f82015250565b5f6200086a60038362000692565b9150620008778262000834565b602082019050919050565b7f746f6b656e2073796d626f6c20646964206e6f74206d617463680000000000005f82015250565b5f620008b8601a8362000692565b9150620008c58262000882565b602082019050919050565b5f6060820190508181035f830152620008ea8184620006a2565b90508181036020830152620008ff816200085c565b905081810360408301526200091481620008aa565b905092915050565b5f819050919050565b5f819050919050565b5f819050919050565b5f62000957620009516200094b846200091c565b6200092e565b62000925565b9050919050565b620009698162000937565b82525050565b5f602082019050620009845f8301846200095e565b92915050565b5f73ffffffffffffffffffffffffffffffffffffffff82169050919050565b5f620009b5826200098a565b9050919050565b620009c781620009a9565b82525050565b5f602082019050620009e25f830184620009bc565b92915050565b620009f38162000925565b8114620009fe575f80fd5b50565b5f8151905062000a1181620009e8565b92915050565b5f6020828403121562000a2f5762000a2e620004bd565b5b5f62000a3e8482850162000a01565b91505092915050565b62000a528162000925565b82525050565b62000a638162000937565b82525050565b7f62616c616e636520646964206e6f74206d6174636800000000000000000000005f82015250565b5f62000a9f60158362000692565b915062000aac8262000a69565b602082019050919050565b5f60608201905062000acc5f83018562000a47565b62000adb602083018462000a58565b818103604083015262000aee8162000a91565b9050939250505056fe60806040525f60075534801562000014575f80fd5b50336040518060400160405280600781526020017f4d79546f6b656e000000000000000000000000000000000000000000000000008152506040518060400160405280600381526020017f4d544b0000000000000000000000000000000000000000000000000000000000815250815f908162000092919062000459565b508060019081620000a4919062000459565b5050505f73ffffffffffffffffffffffffffffffffffffffff168173ffffffffffffffffffffffffffffffffffffffff16036200011a575f6040517f1e4fbdf700000000000000000000000000000000000000000000000000000000815260040162000111919062000580565b60405180910390fd5b6200012b816200013260201b60201c565b506200059b565b5f60065f9054906101000a900473ffffffffffffffffffffffffffffffffffffffff1690508160065f6101000a81548173ffffffffffffffffffffffffffffffffffffffff021916908373ffffffffffffffffffffffffffffffffffffffff1602179055508173ffffffffffffffffffffffffffffffffffffffff168173ffffffffffffffffffffffffffffffffffffffff167f8be0079c531659141344cd1fd0a4f28419497f9722a3daafe3b4186f6b6457e060405160405180910390a35050565b5f81519050919050565b7f4e487b71000000000000000000000000000000000000000000000000000000005f52604160045260245ffd5b7f4e487b71000000000000000000000000000000000000000000000000000000005f52602260045260245ffd5b5f60028204905060018216806200027157607f821691505b6020821081036200028757620002866200022c565b5b50919050565b5f819050815f5260205f209050919050565b5f6020601f8301049050919050565b5f82821b905092915050565b5f60088302620002eb7fffffffffffffffffffffffffffffffffffffffffffffffffffffffffffffffff82620002ae565b620002f78683620002ae565b95508019841693508086168417925050509392505050565b5f819050919050565b5f819050919050565b5f620003416200033b62000335846200030f565b62000318565b6200030f565b9050919050565b5f819050919050565b6200035c8362000321565b620003746200036b8262000348565b848454620002ba565b825550505050565b5f90565b6200038a6200037c565b6200039781848462000351565b505050565b5b81811015620003be57620003b25f8262000380565b6001810190506200039d565b5050565b601f8211156200040d57620003d7816200028d565b620003e2846200029f565b81016020851015620003f2578190505b6200040a62000401856200029f565b8301826200039c565b50505b505050565b5f82821c905092915050565b5f6200042f5f198460080262000412565b1980831691505092915050565b5f6200044983836200041e565b9150826002028217905092915050565b6200046482620001f5565b67ffffffffffffffff81111562000480576200047f620001ff565b5b6200048c825462000259565b62000499828285620003c2565b5f60209050601f831160018114620004cf575f8415620004ba578287015190505b620004c685826200043c565b86555062000535565b601f198416620004df866200028d565b5f5b828110156200050857848901518255600182019150602085019450602081019050620004e1565b8683101562000528578489015162000524601f8916826200041e565b8355505b6001600288020188555050505b505050505050565b5f73ffffffffffffffffffffffffffffffffffffffff82169050919050565b5f62000568826200053d565b9050919050565b6200057a816200055c565b82525050565b5f602082019050620005955f8301846200056f565b92915050565b61222180620005a95f395ff3fe6080604052600436106100fd575f3560e01c8063715018a611610094578063a22cb46511610063578063a22cb46514610319578063b88d4fde14610341578063c87b56dd14610369578063e985e9c5146103a5578063f2fde38b146103e1576100fd565b8063715018a6146102935780638da5cb5b146102a957806395d89b41146102d3578063a0712d68146102fd576100fd565b806323b872dd116100d057806323b872dd146101cb57806342842e0e146101f35780636352211e1461021b57806370a0823114610257576100fd565b806301ffc9a71461010157806306fdde031461013d578063081812fc14610167578063095ea7b3146101a3575b5f80fd5b34801561010c575f80fd5b506101276004803603810190610122919061196e565b610409565b60405161013491906119b3565b60405180910390f35b348015610148575f80fd5b506101516104ea565b60405161015e9190611a56565b60405180910390f35b348015610172575f80fd5b5061018d60048036038101906101889190611aa9565b610579565b60405161019a9190611b13565b60405180910390f35b3480156101ae575f80fd5b506101c960048036038101906101c49190611b56565b610594565b005b3480156101d6575f80fd5b506101f160048036038101906101ec9190611b94565b6105aa565b005b3480156101fe575f80fd5b5061021960048036038101906102149190611b94565b6106a9565b005b348015610226575f80fd5b50610241600480360381019061023c9190611aa9565b6106c8565b60405161024e9190611b13565b60405180910390f35b348015610262575f80fd5b5061027d60048036038101906102789190611be4565b6106d9565b60405161028a9190611c1e565b60405180910390f35b34801561029e575f80fd5b506102a761078f565b005b3480156102b4575f80fd5b506102bd6107a2565b6040516102ca9190611b13565b60405180910390f35b3480156102de575f80fd5b506102e76107ca565b6040516102f49190611a56565b60405180910390f35b61031760048036038101906103129190611aa9565b61085a565b005b348015610324575f80fd5b5061033f600480360381019061033a9190611c61565b61090d565b005b34801561034c575f80fd5b5061036760048036038101906103629190611dcb565b610923565b005b348015610374575f80fd5b5061038f600480360381019061038a9190611aa9565b610940565b60405161039c9190611a56565b60405180910390f35b3480156103b0575f80fd5b506103cb60048036038101906103c69190611e4b565b6109a6565b6040516103d891906119b3565b60405180910390f35b3480156103ec575f80fd5b5061040760048036038101906104029190611be4565b610a34565b005b5f7f80ac58cd000000000000000000000000000000000000000000000000000000007bffffffffffffffffffffffffffffffffffffffffffffffffffffffff1916827bffffffffffffffffffffffffffffffffffffffffffffffffffffffff191614806104d357507f5b5e139f000000000000000000000000000000000000000000000000000000007bffffffffffffffffffffffffffffffffffffffffffffffffffffffff1916827bffffffffffffffffffffffffffffffffffffffffffffffffffffffff1916145b806104e357506104e282610ab8565b5b9050919050565b60605f80546104f890611eb6565b80601f016020809104026020016040519081016040528092919081815260200182805461052490611eb6565b801561056f5780601f106105465761010080835404028352916020019161056f565b820191905f5260205f20905b81548152906001019060200180831161055257829003601f168201915b5050505050905090565b5f61058382610b21565b5061058d82610ba7565b9050919050565b6105a682826105a1610be0565b610be7565b5050565b5f73ffffffffffffffffffffffffffffffffffffffff168273ffffffffffffffffffffffffffffffffffffffff160361061a575f6040517f64a0ae920000000000000000000000000000000000000000000000000000000081526004016106119190611b13565b60405180910390fd5b5f61062d8383610628610be0565b610bf9565b90508373ffffffffffffffffffffffffffffffffffffffff168173ffffffffffffffffffffffffffffffffffffffff16146106a3578382826040517f64283d7b00000000000000000000000000000000000000000000000000000000815260040161069a93929190611ee6565b60405180910390fd5b50505050565b6106c383838360405180602001604052805f815250610923565b505050565b5f6106d282610b21565b9050919050565b5f8073ffffffffffffffffffffffffffffffffffffffff168273ffffffffffffffffffffffffffffffffffffffff160361074a575f6040517f89c62b640000000000000000000000000000000000000000000000000000000081526004016107419190611b13565b60405180910390fd5b60035f8373ffffffffffffffffffffffffffffffffffffffff1673ffffffffffffffffffffffffffffffffffffffff1681526020019081526020015f20549050919050565b610797610e04565b6107a05f610e8b565b565b5f60065f9054906101000a900473ffffffffffffffffffffffffffffffffffffffff16905090565b6060600180546107d990611eb6565b80601f016020809104026020016040519081016040528092919081815260200182805461080590611eb6565b80156108505780601f1061082757610100808354040283529160200191610850565b820191905f5260205f20905b81548152906001019060200180831161083357829003601f168201915b5050505050905090565b6001811461089d576040517f08c379a000000000000000000000000000000000000000000000000000000000815260040161089490611f65565b60405180910390fd5b662386f26fc1000034146108e6576040517f08c379a00000000000000000000000000000000000000000000000000000000081526004016108dd90611fcd565b60405180910390fd5b5f60075f8154809291906108f990612018565b9190505590506109093382610f4e565b5050565b61091f610918610be0565b8383611041565b5050565b61092e8484846105aa565b61093a848484846111aa565b50505050565b606061094b82610b21565b505f61095561135c565b90505f8151116109735760405180602001604052805f81525061099e565b8061097d84611372565b60405160200161098e929190612099565b6040516020818303038152906040525b915050919050565b5f60055f8473ffffffffffffffffffffffffffffffffffffffff1673ffffffffffffffffffffffffffffffffffffffff1681526020019081526020015f205f8373ffffffffffffffffffffffffffffffffffffffff1673ffffffffffffffffffffffffffffffffffffffff1681526020019081526020015f205f9054906101000a900460ff16905092915050565b610a3c610e04565b5f73ffffffffffffffffffffffffffffffffffffffff168173ffffffffffffffffffffffffffffffffffffffff1603610aac575f6040517f1e4fbdf7000000000000000000000000000000000000000000000000000000008152600401610aa39190611b13565b60405180910390fd5b610ab581610e8b565b50565b5f7f01ffc9a7000000000000000000000000000000000000000000000000000000007bffffffffffffffffffffffffffffffffffffffffffffffffffffffff1916827bffffffffffffffffffffffffffffffffffffffffffffffffffffffff1916149050919050565b5f80610b2c8361143c565b90505f73ffffffffffffffffffffffffffffffffffffffff168173ffffffffffffffffffffffffffffffffffffffff1603610b9e57826040517f7e273289000000000000000000000000000000000000000000000000000000008152600401610b959190611c1e565b60405180910390fd5b80915050919050565b5f60045f8381526020019081526020015f205f9054906101000a900473ffffffffffffffffffffffffffffffffffffffff169050919050565b5f33905090565b610bf48383836001611475565b505050565b5f80610c048461143c565b90505f73ffffffffffffffffffffffffffffffffffffffff168373ffffffffffffffffffffffffffffffffffffffff1614610c4557610c44818486611634565b5b5f73ffffffffffffffffffffffffffffffffffffffff168173ffffffffffffffffffffffffffffffffffffffff1614610cd057610c845f855f80611475565b600160035f8373ffffffffffffffffffffffffffffffffffffffff1673ffffffffffffffffffffffffffffffffffffffff1681526020019081526020015f205f82825403925050819055505b5f73ffffffffffffffffffffffffffffffffffffffff168573ffffffffffffffffffffffffffffffffffffffff1614610d4f57600160035f8773ffffffffffffffffffffffffffffffffffffffff1673ffffffffffffffffffffffffffffffffffffffff1681526020019081526020015f205f82825401925050819055505b8460025f8681526020019081526020015f205f6101000a81548173ffffffffffffffffffffffffffffffffffffffff021916908373ffffffffffffffffffffffffffffffffffffffff160217905550838573ffffffffffffffffffffffffffffffffffffffff168273ffffffffffffffffffffffffffffffffffffffff167fddf252ad1be2c89b69c2b068fc378daa952ba7f163c4a11628f55a4df523b3ef60405160405180910390a4809150509392505050565b610e0c610be0565b73ffffffffffffffffffffffffffffffffffffffff16610e2a6107a2565b73ffffffffffffffffffffffffffffffffffffffff1614610e8957610e4d610be0565b6040517f118cdaa7000000000000000000000000000000000000000000000000000000008152600401610e809190611b13565b60405180910390fd5b565b5f60065f9054906101000a900473ffffffffffffffffffffffffffffffffffffffff1690508160065f6101000a81548173ffffffffffffffffffffffffffffffffffffffff021916908373ffffffffffffffffffffffffffffffffffffffff1602179055508173ffffffffffffffffffffffffffffffffffffffff168173ffffffffffffffffffffffffffffffffffffffff167f8be0079c531659141344cd1fd0a4f28419497f9722a3daafe3b4186f6b6457e060405160405180910390a35050565b5f73ffffffffffffffffffffffffffffffffffffffff168273ffffffffffffffffffffffffffffffffffffffff1603610fbe575f6040517f64a0ae92000000000000000000000000000000000000000000000000000000008152600401610fb59190611b13565b60405180910390fd5b5f610fca83835f610bf9565b90505f73ffffffffffffffffffffffffffffffffffffffff168173ffffffffffffffffffffffffffffffffffffffff161461103c575f6040517f73c6ac6e0000000000000000000000000000000000000000000000000000000081526004016110339190611b13565b60405180910390fd5b505050565b5f73ffffffffffffffffffffffffffffffffffffffff168273ffffffffffffffffffffffffffffffffffffffff16036110b157816040517f5b08ba180000000000000000000000000000000000000000000000000000000081526004016110a89190611b13565b60405180910390fd5b8060055f8573ffffffffffffffffffffffffffffffffffffffff1673ffffffffffffffffffffffffffffffffffffffff1681526020019081526020015f205f8473ffffffffffffffffffffffffffffffffffffffff1673ffffffffffffffffffffffffffffffffffffffff1681526020019081526020015f205f6101000a81548160ff0219169083151502179055508173ffffffffffffffffffffffffffffffffffffffff168373ffffffffffffffffffffffffffffffffffffffff167f17307eab39ab6107e8899845ad3d59bd9653f200f220920489ca2b5937696c318360405161119d91906119b3565b60405180910390a3505050565b5f8373ffffffffffffffffffffffffffffffffffffffff163b1115611356578273ffffffffffffffffffffffffffffffffffffffff1663150b7a026111ed610be0565b8685856040518563ffffffff1660e01b815260040161120f949392919061210e565b6020604051808303815f875af192505050801561124a57506040513d601f19601f82011682018060405250810190611247919061216c565b60015b6112cb573d805f8114611278576040519150601f19603f3d011682016040523d82523d5f602084013e61127d565b606091505b505f8151036112c357836040517f64a0ae920000000000000000000000000000000000000000000000000000000081526004016112ba9190611b13565b60405180910390fd5b805181602001fd5b63150b7a0260e01b7bffffffffffffffffffffffffffffffffffffffffffffffffffffffff1916817bffffffffffffffffffffffffffffffffffffffffffffffffffffffff19161461135457836040517f64a0ae9200000000000000000000000000000000000000000000000000000000815260040161134b9190611b13565b60405180910390fd5b505b50505050565b606060405180602001604052805f815250905090565b60605f6001611380846116f7565b0190505f8167ffffffffffffffff81111561139e5761139d611ca7565b5b6040519080825280601f01601f1916602001820160405280156113d05781602001600182028036833780820191505090505b5090505f82602001820190505b600115611431578080600190039150507f3031323334353637383961626364656600000000000000000000000000000000600a86061a8153600a858161142657611425612197565b5b0494505f85036113dd575b819350505050919050565b5f60025f8381526020019081526020015f205f9054906101000a900473ffffffffffffffffffffffffffffffffffffffff169050919050565b80806114ad57505f73ffffffffffffffffffffffffffffffffffffffff168273ffffffffffffffffffffffffffffffffffffffff1614155b156115df575f6114bc84610b21565b90505f73ffffffffffffffffffffffffffffffffffffffff168373ffffffffffffffffffffffffffffffffffffffff161415801561152657508273ffffffffffffffffffffffffffffffffffffffff168173ffffffffffffffffffffffffffffffffffffffff1614155b8015611539575061153781846109a6565b155b1561157b57826040517fa9fbf51f0000000000000000000000000000000000000000000000000000000081526004016115729190611b13565b60405180910390fd5b81156115dd57838573ffffffffffffffffffffffffffffffffffffffff168273ffffffffffffffffffffffffffffffffffffffff167f8c5be1e5ebec7d5bd14f71427d1e84f3dd0314c0f7b2291e5b200ac8c7c3b92560405160405180910390a45b505b8360045f8581526020019081526020015f205f6101000a81548173ffffffffffffffffffffffffffffffffffffffff021916908373ffffffffffffffffffffffffffffffffffffffff16021790555050505050565b61163f838383611848565b6116f2575f73ffffffffffffffffffffffffffffffffffffffff168373ffffffffffffffffffffffffffffffffffffffff16036116b357806040517f7e2732890000000000000000000000000000000000000000000000000000000081526004016116aa9190611c1e565b60405180910390fd5b81816040517f177e802f0000000000000000000000000000000000000000000000000000000081526004016116e99291906121c4565b60405180910390fd5b505050565b5f805f90507a184f03e93ff9f4daa797ed6e38ed64bf6a1f0100000000000000008310611753577a184f03e93ff9f4daa797ed6e38ed64bf6a1f010000000000000000838161174957611748612197565b5b0492506040810190505b6d04ee2d6d415b85acef81000000008310611790576d04ee2d6d415b85acef8100000000838161178657611785612197565b5b0492506020810190505b662386f26fc1000083106117bf57662386f26fc1000083816117b5576117b4612197565b5b0492506010810190505b6305f5e10083106117e8576305f5e10083816117de576117dd612197565b5b0492506008810190505b612710831061180d57612710838161180357611802612197565b5b0492506004810190505b60648310611830576064838161182657611825612197565b5b0492506002810190505b600a831061183f576001810190505b80915050919050565b5f8073ffffffffffffffffffffffffffffffffffffffff168373ffffffffffffffffffffffffffffffffffffffff16141580156118ff57508273ffffffffffffffffffffffffffffffffffffffff168473ffffffffffffffffffffffffffffffffffffffff1614806118c057506118bf84846109a6565b5b806118fe57508273ffffffffffffffffffffffffffffffffffffffff166118e683610ba7565b73ffffffffffffffffffffffffffffffffffffffff16145b5b90509392505050565b5f604051905090565b5f80fd5b5f80fd5b5f7fffffffff0000000000000000000000000000000000000000000000000000000082169050919050565b61194d81611919565b8114611957575f80fd5b50565b5f8135905061196881611944565b92915050565b5f6020828403121561198357611982611911565b5b5f6119908482850161195a565b91505092915050565b5f8115159050919050565b6119ad81611999565b82525050565b5f6020820190506119c65f8301846119a4565b92915050565b5f81519050919050565b5f82825260208201905092915050565b5f5b83811015611a035780820151818401526020810190506119e8565b5f8484015250505050565b5f601f19601f8301169050919050565b5f611a28826119cc565b611a3281856119d6565b9350611a428185602086016119e6565b611a4b81611a0e565b840191505092915050565b5f6020820190508181035f830152611a6e8184611a1e565b905092915050565b5f819050919050565b611a8881611a76565b8114611a92575f80fd5b50565b5f81359050611aa381611a7f565b92915050565b5f60208284031215611abe57611abd611911565b5b5f611acb84828501611a95565b91505092915050565b5f73ffffffffffffffffffffffffffffffffffffffff82169050919050565b5f611afd82611ad4565b9050919050565b611b0d81611af3565b82525050565b5f602082019050611b265f830184611b04565b92915050565b611b3581611af3565b8114611b3f575f80fd5b50565b5f81359050611b5081611b2c565b92915050565b5f8060408385031215611b6c57611b6b611911565b5b5f611b7985828601611b42565b9250506020611b8a85828601611a95565b9150509250929050565b5f805f60608486031215611bab57611baa611911565b5b5f611bb886828701611b42565b9350506020611bc986828701611b42565b9250506040611bda86828701611a95565b9150509250925092565b5f60208284031215611bf957611bf8611911565b5b5f611c0684828501611b42565b91505092915050565b611c1881611a76565b82525050565b5f602082019050611c315f830184611c0f565b92915050565b611c4081611999565b8114611c4a575f80fd5b50565b5f81359050611c5b81611c37565b92915050565b5f8060408385031215611c7757611c76611911565b5b5f611c8485828601611b42565b9250506020611c9585828601611c4d565b9150509250929050565b5f80fd5b5f80fd5b7f4e487b71000000000000000000000000000000000000000000000000000000005f52604160045260245ffd5b611cdd82611a0e565b810181811067ffffffffffffffff82111715611cfc57611cfb611ca7565b5b80604052505050565b5f611d0e611908565b9050611d1a8282611cd4565b919050565b5f67ffffffffffffffff821115611d3957611d38611ca7565b5b611d4282611a0e565b9050602081019050919050565b828183375f83830152505050565b5f611d6f611d6a84611d1f565b611d05565b905082815260208101848484011115611d8b57611d8a611ca3565b5b611d96848285611d4f565b509392505050565b5f82601f830112611db257611db1611c9f565b5b8135611dc2848260208601611d5d565b91505092915050565b5f805f8060808587031215611de357611de2611911565b5b5f611df087828801611b42565b9450506020611e0187828801611b42565b9350506040611e1287828801611a95565b925050606085013567ffffffffffffffff811115611e3357611e32611915565b5b611e3f87828801611d9e565b91505092959194509250565b5f8060408385031215611e6157611e60611911565b5b5f611e6e85828601611b42565b9250506020611e7f85828601611b42565b9150509250929050565b7f4e487b71000000000000000000000000000000000000000000000000000000005f52602260045260245ffd5b5f6002820490506001821680611ecd57607f821691505b602082108103611ee057611edf611e89565b5b50919050565b5f606082019050611ef95f830186611b04565b611f066020830185611c0f565b611f136040830184611b04565b949350505050565b7f7175616e74697479206d757374206265203100000000000000000000000000005f82015250565b5f611f4f6012836119d6565b9150611f5a82611f1b565b602082019050919050565b5f6020820190508181035f830152611f7c81611f43565b9050919050565b7f6d7573742070617920302e3031206574686572000000000000000000000000005f82015250565b5f611fb76013836119d6565b9150611fc282611f83565b602082019050919050565b5f6020820190508181035f830152611fe481611fab565b9050919050565b7f4e487b71000000000000000000000000000000000000000000000000000000005f52601160045260245ffd5b5f61202282611a76565b91507fffffffffffffffffffffffffffffffffffffffffffffffffffffffffffffffff820361205457612053611feb565b5b600182019050919050565b5f81905092915050565b5f612073826119cc565b61207d818561205f565b935061208d8185602086016119e6565b80840191505092915050565b5f6120a48285612069565b91506120b08284612069565b91508190509392505050565b5f81519050919050565b5f82825260208201905092915050565b5f6120e0826120bc565b6120ea81856120c6565b93506120fa8185602086016119e6565b61210381611a0e565b840191505092915050565b5f6080820190506121215f830187611b04565b61212e6020830186611b04565b61213b6040830185611c0f565b818103606083015261214d81846120d6565b905095945050505050565b5f8151905061216681611944565b92915050565b5f6020828403121561218157612180611911565b5b5f61218e84828501612158565b91505092915050565b7f4e487b71000000000000000000000000000000000000000000000000000000005f52601260045260245ffd5b5f6040820190506121d75f830185611b04565b6121e46020830184611c0f565b939250505056fea26469706673582212201c558829ec637ead70317ac1a8399522fa6a5275a6d85ed916eb9d66a12b7b3a64736f6c63430008180033a26469706673582212201d13d2a3621f7ec183a6b70f00c2677e3607001adfbdf2dcfac529d7f0907b4264736f6c63430008180033",
			"opcodes": "PUSH1 0x80 PUSH1 0x40 MSTORE CALLVALUE DUP1 ISZERO PUSH2 0xF JUMPI PUSH0 DUP1 REVERT JUMPDEST POP PUSH2 0x32F7 DUP1 PUSH2 0x1D PUSH0 CODECOPY PUSH0 RETURN INVALID PUSH1 0x80 PUSH1 0x40 MSTORE PUSH1 0x4 CALLDATASIZE LT PUSH3 0x37 JUMPI PUSH0 CALLDATALOAD PUSH1 0xE0 SHR DUP1 PUSH4 0x218E00FF EQ PUSH3 0x3B JUMPI DUP1 PUSH4 0x7FEA0D4B EQ PUSH3 0x54 JUMPI DUP1 PUSH4 0x9642DDAF EQ PUSH3 0x6D JUMPI JUMPDEST PUSH0 DUP1 REVERT JUMPDEST CALLVALUE DUP1 ISZERO PUSH3 0x47 JUMPI PUSH0 DUP1 REVERT JUMPDEST POP PUSH3 0x52 PUSH3 0x79 JUMP JUMPDEST STOP JUMPDEST CALLVALUE DUP1 ISZERO PUSH3 0x60 JUMPI PUSH0 DUP1 REVERT JUMPDEST POP PUSH3 0x6B PUSH3 0x295 JUMP JUMPDEST STOP JUMPDEST PUSH3 0x77 PUSH3 0x2FE JUMP JUMPDEST STOP JUMPDEST PUSH20 0x0 PUSH4 0xE8C2CB16 PUSH0 DUP1 SLOAD SWAP1 PUSH2 0x100 EXP SWAP1 DIV PUSH20 0xFFFFFFFFFFFFFFFFFFFFFFFFFFFFFFFFFFFFFFFF AND PUSH20 0xFFFFFFFFFFFFFFFFFFFFFFFFFFFFFFFFFFFFFFFF AND PUSH4 0x6FDDE03 PUSH1 0x40 MLOAD DUP2 PUSH4 0xFFFFFFFF AND PUSH1 0xE0 SHL DUP2 MSTORE PUSH1 0x4 ADD PUSH0 PUSH1 0x40 MLOAD DUP1 DUP4 SUB DUP2 DUP7 GAS STATICCALL ISZERO DUP1 ISZERO PUSH3 0xFB JUMPI RETURNDATASIZE PUSH0 DUP1 RETURNDATACOPY RETURNDATASIZE PUSH0 REVERT JUMPDEST POP POP POP POP PUSH1 0x40 MLOAD RETURNDATASIZE PUSH0 DUP3 RETURNDATACOPY RETURNDATASIZE PUSH1 0x1F NOT PUSH1 0x1F DUP3 ADD AND DUP3 ADD DUP1 PUSH1 0x40 MSTORE POP DUP2 ADD SWAP1 PUSH3 0x125 SWAP2 SWAP1 PUSH3 0x639 JUMP JUMPDEST PUSH1 0x40 MLOAD DUP3 PUSH4 0xFFFFFFFF AND PUSH1 0xE0 SHL DUP2 MSTORE PUSH1 0x4 ADD PUSH3 0x143 SWAP2 SWAP1 PUSH3 0x77E JUMP JUMPDEST PUSH1 0x20 PUSH1 0x40 MLOAD DUP1 DUP4 SUB DUP2 DUP7 GAS DELEGATECALL ISZERO DUP1 ISZERO PUSH3 0x15F JUMPI RETURNDATASIZE PUSH0 DUP1 RETURNDATACOPY RETURNDATASIZE PUSH0 REVERT JUMPDEST POP POP POP POP PUSH1 0x40 MLOAD RETURNDATASIZE PUSH1 0x1F NOT PUSH1 0x1F DUP3 ADD AND DUP3 ADD DUP1 PUSH1 0x40 MSTORE POP DUP2 ADD SWAP1 PUSH3 0x185 SWAP2 SWAP1 PUSH3 0x804 JUMP JUMPDEST POP PUSH20 0x0 PUSH4 0xE8C2CB16 PUSH0 DUP1 SLOAD SWAP1 PUSH2 0x100 EXP SWAP1 DIV PUSH20 0xFFFFFFFFFFFFFFFFFFFFFFFFFFFFFFFFFFFFFFFF AND PUSH20 0xFFFFFFFFFFFFFFFFFFFFFFFFFFFFFFFFFFFFFFFF AND PUSH4 0x95D89B41 PUSH1 0x40 MLOAD DUP2 PUSH4 0xFFFFFFFF AND PUSH1 0xE0 SHL DUP2 MSTORE PUSH1 0x4 ADD PUSH0 PUSH1 0x40 MLOAD DUP1 DUP4 SUB DUP2 DUP7 GAS STATICCALL ISZERO DUP1 ISZERO PUSH3 0x208 JUMPI RETURNDATASIZE PUSH0 DUP1 RETURNDATACOPY RETURNDATASIZE PUSH0 REVERT JUMPDEST POP POP POP POP PUSH1 0x40 MLOAD RETURNDATASIZE PUSH0 DUP3 RETURNDATACOPY RETURNDATASIZE PUSH1 0x1F NOT PUSH1 0x1F DUP3 ADD AND DUP3 ADD DUP1 PUSH1 0x40 MSTORE POP DUP2 ADD SWAP1 PUSH3 0x232 SWAP2 SWAP1 PUSH3 0x639 JUMP JUMPDEST PUSH1 0x40 MLOAD DUP3 PUSH4 0xFFFFFFFF AND PUSH1 0xE0 SHL DUP2 MSTORE PUSH1 0x4 ADD PUSH3 0x250 SWAP2 SWAP1 PUSH3 0x8D0 JUMP JUMPDEST PUSH1 0x20 PUSH1 0x40 MLOAD DUP1 DUP4 SUB DUP2 DUP7 GAS DELEGATECALL ISZERO DUP1 ISZERO PUSH3 0x26C JUMPI RETURNDATASIZE PUSH0 DUP1 RETURNDATACOPY RETURNDATASIZE PUSH0 REVERT JUMPDEST POP POP POP POP PUSH1 0x40 MLOAD RETURNDATASIZE PUSH1 0x1F NOT PUSH1 0x1F DUP3 ADD AND DUP3 ADD DUP1 PUSH1 0x40 MSTORE POP DUP2 ADD SWAP1 PUSH3 0x292 SWAP2 SWAP1 PUSH3 0x804 JUMP JUMPDEST POP JUMP JUMPDEST PUSH1 0x40 MLOAD PUSH3 0x2A3 SWAP1 PUSH3 0x4A6 JUMP JUMPDEST PUSH1 0x40 MLOAD DUP1 SWAP2 SUB SWAP1 PUSH0 CREATE DUP1 ISZERO DUP1 ISZERO PUSH3 0x2BD JUMPI RETURNDATASIZE PUSH0 DUP1 RETURNDATACOPY RETURNDATASIZE PUSH0 REVERT JUMPDEST POP PUSH0 DUP1 PUSH2 0x100 EXP DUP2 SLOAD DUP2 PUSH20 0xFFFFFFFFFFFFFFFFFFFFFFFFFFFFFFFFFFFFFFFF MUL NOT AND SWAP1 DUP4 PUSH20 0xFFFFFFFFFFFFFFFFFFFFFFFFFFFFFFFFFFFFFFFF AND MUL OR SWAP1 SSTORE POP JUMP JUMPDEST PUSH0 DUP1 SLOAD SWAP1 PUSH2 0x100 EXP SWAP1 DIV PUSH20 0xFFFFFFFFFFFFFFFFFFFFFFFFFFFFFFFFFFFFFFFF AND PUSH20 0xFFFFFFFFFFFFFFFFFFFFFFFFFFFFFFFFFFFFFFFF AND PUSH4 0xA0712D68 CALLVALUE PUSH1 0x1 PUSH1 0x40 MLOAD DUP4 PUSH4 0xFFFFFFFF AND PUSH1 0xE0 SHL DUP2 MSTORE PUSH1 0x4 ADD PUSH3 0x35A SWAP2 SWAP1 PUSH3 0x96F JUMP JUMPDEST PUSH0 PUSH1 0x40 MLOAD DUP1 DUP4 SUB DUP2 DUP6 DUP9 DUP1 EXTCODESIZE ISZERO DUP1 ISZERO PUSH3 0x372 JUMPI PUSH0 DUP1 REVERT JUMPDEST POP GAS CALL ISZERO DUP1 ISZERO PUSH3 0x385 JUMPI RETURNDATASIZE PUSH0 DUP1 RETURNDATACOPY RETURNDATASIZE PUSH0 REVERT JUMPDEST POP POP POP POP POP PUSH20 0x0 PUSH4 0xABCD7960 PUSH0 DUP1 SLOAD SWAP1 PUSH2 0x100 EXP SWAP1 DIV PUSH20 0xFFFFFFFFFFFFFFFFFFFFFFFFFFFFFFFFFFFFFFFF AND PUSH20 0xFFFFFFFFFFFFFFFFFFFFFFFFFFFFFFFFFFFFFFFF AND PUSH4 0x70A08231 ADDRESS PUSH1 0x40 MLOAD DUP3 PUSH4 0xFFFFFFFF AND PUSH1 0xE0 SHL DUP2 MSTORE PUSH1 0x4 ADD PUSH3 0x3FE SWAP2 SWAP1 PUSH3 0x9CD JUMP JUMPDEST PUSH1 0x20 PUSH1 0x40 MLOAD DUP1 DUP4 SUB DUP2 DUP7 GAS STATICCALL ISZERO DUP1 ISZERO PUSH3 0x41A JUMPI RETURNDATASIZE PUSH0 DUP1 RETURNDATACOPY RETURNDATASIZE PUSH0 REVERT JUMPDEST POP POP POP POP PUSH1 0x40 MLOAD RETURNDATASIZE PUSH1 0x1F NOT PUSH1 0x1F DUP3 ADD AND DUP3 ADD DUP1 PUSH1 0x40 MSTORE POP DUP2 ADD SWAP1 PUSH3 0x440 SWAP2 SWAP1 PUSH3 0xA17 JUMP JUMPDEST PUSH1 0x1 PUSH1 0x40 MLOAD DUP4 PUSH4 0xFFFFFFFF AND PUSH1 0xE0 SHL DUP2 MSTORE PUSH1 0x4 ADD PUSH3 0x461 SWAP3 SWAP2 SWAP1 PUSH3 0xAB7 JUMP JUMPDEST PUSH1 0x20 PUSH1 0x40 MLOAD DUP1 DUP4 SUB DUP2 DUP7 GAS DELEGATECALL ISZERO DUP1 ISZERO PUSH3 0x47D JUMPI RETURNDATASIZE PUSH0 DUP1 RETURNDATACOPY RETURNDATASIZE PUSH0 REVERT JUMPDEST POP POP POP POP PUSH1 0x40 MLOAD RETURNDATASIZE PUSH1 0x1F NOT PUSH1 0x1F DUP3 ADD AND DUP3 ADD DUP1 PUSH1 0x40 MSTORE POP DUP2 ADD SWAP1 PUSH3 0x4A3 SWAP2 SWAP1 PUSH3 0x804 JUMP JUMPDEST POP JUMP JUMPDEST PUSH2 0x27CA DUP1 PUSH3 0xAF8 DUP4 CODECOPY ADD SWAP1 JUMP JUMPDEST PUSH0 PUSH1 0x40 MLOAD SWAP1 POP SWAP1 JUMP JUMPDEST PUSH0 DUP1 REVERT JUMPDEST PUSH0 DUP1 REVERT JUMPDEST PUSH0 DUP1 REVERT JUMPDEST PUSH0 DUP1 REVERT JUMPDEST PUSH0 PUSH1 0x1F NOT PUSH1 0x1F DUP4 ADD AND SWAP1 POP SWAP2 SWAP1 POP JUMP JUMPDEST PUSH32 0x4E487B7100000000000000000000000000000000000000000000000000000000 PUSH0 MSTORE PUSH1 0x41 PUSH1 0x4 MSTORE PUSH1 0x24 PUSH0 REVERT JUMPDEST PUSH3 0x515 DUP3 PUSH3 0x4CD JUMP JUMPDEST DUP2 ADD DUP2 DUP2 LT PUSH8 0xFFFFFFFFFFFFFFFF DUP3 GT OR ISZERO PUSH3 0x537 JUMPI PUSH3 0x536 PUSH3 0x4DD JUMP JUMPDEST JUMPDEST DUP1 PUSH1 0x40 MSTORE POP POP POP JUMP JUMPDEST PUSH0 PUSH3 0x54B PUSH3 0x4B4 JUMP JUMPDEST SWAP1 POP PUSH3 0x559 DUP3 DUP3 PUSH3 0x50A JUMP JUMPDEST SWAP2 SWAP1 POP JUMP JUMPDEST PUSH0 PUSH8 0xFFFFFFFFFFFFFFFF DUP3 GT ISZERO PUSH3 0x57B JUMPI PUSH3 0x57A PUSH3 0x4DD JUMP JUMPDEST JUMPDEST PUSH3 0x586 DUP3 PUSH3 0x4CD JUMP JUMPDEST SWAP1 POP PUSH1 0x20 DUP2 ADD SWAP1 POP SWAP2 SWAP1 POP JUMP JUMPDEST PUSH0 JUMPDEST DUP4 DUP2 LT ISZERO PUSH3 0x5B2 JUMPI DUP1 DUP3 ADD MLOAD DUP2 DUP5 ADD MSTORE PUSH1 0x20 DUP2 ADD SWAP1 POP PUSH3 0x595 JUMP JUMPDEST PUSH0 DUP5 DUP5 ADD MSTORE POP POP POP POP JUMP JUMPDEST PUSH0 PUSH3 0x5D3 PUSH3 0x5CD DUP5 PUSH3 0x55E JUMP JUMPDEST PUSH3 0x540 JUMP JUMPDEST SWAP1 POP DUP3 DUP2 MSTORE PUSH1 0x20 DUP2 ADD DUP5 DUP5 DUP5 ADD GT ISZERO PUSH3 0x5F2 JUMPI PUSH3 0x5F1 PUSH3 0x4C9 JUMP JUMPDEST JUMPDEST PUSH3 0x5FF DUP5 DUP3 DUP6 PUSH3 0x593 JUMP JUMPDEST POP SWAP4 SWAP3 POP POP POP JUMP JUMPDEST PUSH0 DUP3 PUSH1 0x1F DUP4 ADD SLT PUSH3 0x61E JUMPI PUSH3 0x61D PUSH3 0x4C5 JUMP JUMPDEST JUMPDEST DUP2 MLOAD PUSH3 0x630 DUP5 DUP3 PUSH1 0x20 DUP7 ADD PUSH3 0x5BD JUMP JUMPDEST SWAP2 POP POP SWAP3 SWAP2 POP POP JUMP JUMPDEST PUSH0 PUSH1 0x20 DUP3 DUP5 SUB SLT ISZERO PUSH3 0x651 JUMPI PUSH3 0x650 PUSH3 0x4BD JUMP JUMPDEST JUMPDEST PUSH0 DUP3 ADD MLOAD PUSH8 0xFFFFFFFFFFFFFFFF DUP2 GT ISZERO PUSH3 0x671 JUMPI PUSH3 0x670 PUSH3 0x4C1 JUMP JUMPDEST JUMPDEST PUSH3 0x67F DUP5 DUP3 DUP6 ADD PUSH3 0x607 JUMP JUMPDEST SWAP2 POP POP SWAP3 SWAP2 POP POP JUMP JUMPDEST PUSH0 DUP2 MLOAD SWAP1 POP SWAP2 SWAP1 POP JUMP JUMPDEST PUSH0 DUP3 DUP3 MSTORE PUSH1 0x20 DUP3 ADD SWAP1 POP SWAP3 SWAP2 POP POP JUMP JUMPDEST PUSH0 PUSH3 0x6AE DUP3 PUSH3 0x688 JUMP JUMPDEST PUSH3 0x6BA DUP2 DUP6 PUSH3 0x692 JUMP JUMPDEST SWAP4 POP PUSH3 0x6CC DUP2 DUP6 PUSH1 0x20 DUP7 ADD PUSH3 0x593 JUMP JUMPDEST PUSH3 0x6D7 DUP2 PUSH3 0x4CD JUMP JUMPDEST DUP5 ADD SWAP2 POP POP SWAP3 SWAP2 POP POP JUMP JUMPDEST PUSH32 0x4D79546F6B656E00000000000000000000000000000000000000000000000000 PUSH0 DUP3 ADD MSTORE POP JUMP JUMPDEST PUSH0 PUSH3 0x718 PUSH1 0x7 DUP4 PUSH3 0x692 JUMP JUMPDEST SWAP2 POP PUSH3 0x725 DUP3 PUSH3 0x6E2 JUMP JUMPDEST PUSH1 0x20 DUP3 ADD SWAP1 POP SWAP2 SWAP1 POP JUMP JUMPDEST PUSH32 0x746F6B656E206E616D6520646964206E6F74206D617463680000000000000000 PUSH0 DUP3 ADD MSTORE POP JUMP JUMPDEST PUSH0 PUSH3 0x766 PUSH1 0x18 DUP4 PUSH3 0x692 JUMP JUMPDEST SWAP2 POP PUSH3 0x773 DUP3 PUSH3 0x730 JUMP JUMPDEST PUSH1 0x20 DUP3 ADD SWAP1 POP SWAP2 SWAP1 POP JUMP JUMPDEST PUSH0 PUSH1 0x60 DUP3 ADD SWAP1 POP DUP2 DUP2 SUB PUSH0 DUP4 ADD MSTORE PUSH3 0x798 DUP2 DUP5 PUSH3 0x6A2 JUMP JUMPDEST SWAP1 POP DUP2 DUP2 SUB PUSH1 0x20 DUP4 ADD MSTORE PUSH3 0x7AD DUP2 PUSH3 0x70A JUMP JUMPDEST SWAP1 POP DUP2 DUP2 SUB PUSH1 0x40 DUP4 ADD MSTORE PUSH3 0x7C2 DUP2 PUSH3 0x758 JUMP JUMPDEST SWAP1 POP SWAP3 SWAP2 POP POP JUMP JUMPDEST PUSH0 DUP2 ISZERO ISZERO SWAP1 POP SWAP2 SWAP1 POP JUMP JUMPDEST PUSH3 0x7E0 DUP2 PUSH3 0x7CA JUMP JUMPDEST DUP2 EQ PUSH3 0x7EB JUMPI PUSH0 DUP1 REVERT JUMPDEST POP JUMP JUMPDEST PUSH0 DUP2 MLOAD SWAP1 POP PUSH3 0x7FE DUP2 PUSH3 0x7D5 JUMP JUMPDEST SWAP3 SWAP2 POP POP JUMP JUMPDEST PUSH0 PUSH1 0x20 DUP3 DUP5 SUB SLT ISZERO PUSH3 0x81C JUMPI PUSH3 0x81B PUSH3 0x4BD JUMP JUMPDEST JUMPDEST PUSH0 PUSH3 0x82B DUP5 DUP3 DUP6 ADD PUSH3 0x7EE JUMP JUMPDEST SWAP2 POP POP SWAP3 SWAP2 POP POP JUMP JUMPDEST PUSH32 0x4D544B0000000000000000000000000000000000000000000000000000000000 PUSH0 DUP3 ADD MSTORE POP JUMP JUMPDEST PUSH0 PUSH3 0x86A PUSH1 0x3 DUP4 PUSH3 0x692 JUMP JUMPDEST SWAP2 POP PUSH3 0x877 DUP3 PUSH3 0x834 JUMP JUMPDEST PUSH1 0x20 DUP3 ADD SWAP1 POP SWAP2 SWAP1 POP JUMP JUMPDEST PUSH32 0x746F6B656E2073796D626F6C20646964206E6F74206D61746368000000000000 PUSH0 DUP3 ADD MSTORE POP JUMP JUMPDEST PUSH0 PUSH3 0x8B8 PUSH1 0x1A DUP4 PUSH3 0x692 JUMP JUMPDEST SWAP2 POP PUSH3 0x8C5 DUP3 PUSH3 0x882 JUMP JUMPDEST PUSH1 0x20 DUP3 ADD SWAP1 POP SWAP2 SWAP1 POP JUMP JUMPDEST PUSH0 PUSH1 0x60 DUP3 ADD SWAP1 POP DUP2 DUP2 SUB PUSH0 DUP4 ADD MSTORE PUSH3 0x8EA DUP2 DUP5 PUSH3 0x6A2 JUMP JUMPDEST SWAP1 POP DUP2 DUP2 SUB PUSH1 0x20 DUP4 ADD MSTORE PUSH3 0x8FF DUP2 PUSH3 0x85C JUMP JUMPDEST SWAP1 POP DUP2 DUP2 SUB PUSH1 0x40 DUP4 ADD MSTORE PUSH3 0x914 DUP2 PUSH3 0x8AA JUMP JUMPDEST SWAP1 POP SWAP3 SWAP2 POP POP JUMP JUMPDEST PUSH0 DUP2 SWAP1 POP SWAP2 SWAP1 POP JUMP JUMPDEST PUSH0 DUP2 SWAP1 POP SWAP2 SWAP1 POP JUMP JUMPDEST PUSH0 DUP2 SWAP1 POP SWAP2 SWAP1 POP JUMP JUMPDEST PUSH0 PUSH3 0x957 PUSH3 0x951 PUSH3 0x94B DUP5 PUSH3 0x91C JUMP JUMPDEST PUSH3 0x92E JUMP JUMPDEST PUSH3 0x925 JUMP JUMPDEST SWAP1 POP SWAP2 SWAP1 POP JUMP JUMPDEST PUSH3 0x969 DUP2 PUSH3 0x937 JUMP JUMPDEST DUP3 MSTORE POP POP JUMP JUMPDEST PUSH0 PUSH1 0x20 DUP3 ADD SWAP1 POP PUSH3 0x984 PUSH0 DUP4 ADD DUP5 PUSH3 0x95E JUMP JUMPDEST SWAP3 SWAP2 POP POP JUMP JUMPDEST PUSH0 PUSH20 0xFFFFFFFFFFFFFFFFFFFFFFFFFFFFFFFFFFFFFFFF DUP3 AND SWAP1 POP SWAP2 SWAP1 POP JUMP JUMPDEST PUSH0 PUSH3 0x9B5 DUP3 PUSH3 0x98A JUMP JUMPDEST SWAP1 POP SWAP2 SWAP1 POP JUMP JUMPDEST PUSH3 0x9C7 DUP2 PUSH3 0x9A9 JUMP JUMPDEST DUP3 MSTORE POP POP JUMP JUMPDEST PUSH0 PUSH1 0x20 DUP3 ADD SWAP1 POP PUSH3 0x9E2 PUSH0 DUP4 ADD DUP5 PUSH3 0x9BC JUMP JUMPDEST SWAP3 SWAP2 POP POP JUMP JUMPDEST PUSH3 0x9F3 DUP2 PUSH3 0x925 JUMP JUMPDEST DUP2 EQ PUSH3 0x9FE JUMPI PUSH0 DUP1 REVERT JUMPDEST POP JUMP JUMPDEST PUSH0 DUP2 MLOAD SWAP1 POP PUSH3 0xA11 DUP2 PUSH3 0x9E8 JUMP JUMPDEST SWAP3 SWAP2 POP POP JUMP JUMPDEST PUSH0 PUSH1 0x20 DUP3 DUP5 SUB SLT ISZERO PUSH3 0xA2F JUMPI PUSH3 0xA2E PUSH3 0x4BD JUMP JUMPDEST JUMPDEST PUSH0 PUSH3 0xA3E DUP5 DUP3 DUP6 ADD PUSH3 0xA01 JUMP JUMPDEST SWAP2 POP POP SWAP3 SWAP2 POP POP JUMP JUMPDEST PUSH3 0xA52 DUP2 PUSH3 0x925 JUMP JUMPDEST DUP3 MSTORE POP POP JUMP JUMPDEST PUSH3 0xA63 DUP2 PUSH3 0x937 JUMP JUMPDEST DUP3 MSTORE POP POP JUMP JUMPDEST PUSH32 0x62616C616E636520646964206E6F74206D617463680000000000000000000000 PUSH0 DUP3 ADD MSTORE POP JUMP JUMPDEST PUSH0 PUSH3 0xA9F PUSH1 0x15 DUP4 PUSH3 0x692 JUMP JUMPDEST SWAP2 POP PUSH3 0xAAC DUP3 PUSH3 0xA69 JUMP JUMPDEST PUSH1 0x20 DUP3 ADD SWAP1 POP SWAP2 SWAP1 POP JUMP JUMPDEST PUSH0 PUSH1 0x60 DUP3 ADD SWAP1 POP PUSH3 0xACC PUSH0 DUP4 ADD DUP6 PUSH3 0xA47 JUMP JUMPDEST PUSH3 0xADB PUSH1 0x20 DUP4 ADD DUP5 PUSH3 0xA58 JUMP JUMPDEST DUP2 DUP2 SUB PUSH1 0x40 DUP4 ADD MSTORE PUSH3 0xAEE DUP2 PUSH3 0xA91 JUMP JUMPDEST SWAP1 POP SWAP4 SWAP3 POP POP POP JUMP INVALID PUSH1 0x80 PUSH1 0x40 MSTORE PUSH0 PUSH1 0x7 SSTORE CALLVALUE DUP1 ISZERO PUSH3 0x14 JUMPI PUSH0 DUP1 REVERT JUMPDEST POP CALLER PUSH1 0x40 MLOAD DUP1 PUSH1 0x40 ADD PUSH1 0x40 MSTORE DUP1 PUSH1 0x7 DUP2 MSTORE PUSH1 0x20 ADD PUSH32 0x4D79546F6B656E00000000000000000000000000000000000000000000000000 DUP2 MSTORE POP PUSH1 0x40 MLOAD DUP1 PUSH1 0x40 ADD PUSH1 0x40 MSTORE DUP1 PUSH1 0x3 DUP2 MSTORE PUSH1 0x20 ADD PUSH32 0x4D544B0000000000000000000000000000000000000000000000000000000000 DUP2 MSTORE POP DUP2 PUSH0 SWAP1 DUP2 PUSH3 0x92 SWAP2 SWAP1 PUSH3 0x459 JUMP JUMPDEST POP DUP1 PUSH1 0x1 SWAP1 DUP2 PUSH3 0xA4 SWAP2 SWAP1 PUSH3 0x459 JUMP JUMPDEST POP POP POP PUSH0 PUSH20 0xFFFFFFFFFFFFFFFFFFFFFFFFFFFFFFFFFFFFFFFF AND DUP2 PUSH20 0xFFFFFFFFFFFFFFFFFFFFFFFFFFFFFFFFFFFFFFFF AND SUB PUSH3 0x11A JUMPI PUSH0 PUSH1 0x40 MLOAD PUSH32 0x1E4FBDF700000000000000000000000000000000000000000000000000000000 DUP2 MSTORE PUSH1 0x4 ADD PUSH3 0x111 SWAP2 SWAP1 PUSH3 0x580 JUMP JUMPDEST PUSH1 0x40 MLOAD DUP1 SWAP2 SUB SWAP1 REVERT JUMPDEST PUSH3 0x12B DUP2 PUSH3 0x132 PUSH1 0x20 SHL PUSH1 0x20 SHR JUMP JUMPDEST POP PUSH3 0x59B JUMP JUMPDEST PUSH0 PUSH1 0x6 PUSH0 SWAP1 SLOAD SWAP1 PUSH2 0x100 EXP SWAP1 DIV PUSH20 0xFFFFFFFFFFFFFFFFFFFFFFFFFFFFFFFFFFFFFFFF AND SWAP1 POP DUP2 PUSH1 0x6 PUSH0 PUSH2 0x100 EXP DUP2 SLOAD DUP2 PUSH20 0xFFFFFFFFFFFFFFFFFFFFFFFFFFFFFFFFFFFFFFFF MUL NOT AND SWAP1 DUP4 PUSH20 0xFFFFFFFFFFFFFFFFFFFFFFFFFFFFFFFFFFFFFFFF AND MUL OR SWAP1 SSTORE POP DUP2 PUSH20 0xFFFFFFFFFFFFFFFFFFFFFFFFFFFFFFFFFFFFFFFF AND DUP2 PUSH20 0xFFFFFFFFFFFFFFFFFFFFFFFFFFFFFFFFFFFFFFFF AND PUSH32 0x8BE0079C531659141344CD1FD0A4F28419497F9722A3DAAFE3B4186F6B6457E0 PUSH1 0x40 MLOAD PUSH1 0x40 MLOAD DUP1 SWAP2 SUB SWAP1 LOG3 POP POP JUMP JUMPDEST PUSH0 DUP2 MLOAD SWAP1 POP SWAP2 SWAP1 POP JUMP JUMPDEST PUSH32 0x4E487B7100000000000000000000000000000000000000000000000000000000 PUSH0 MSTORE PUSH1 0x41 PUSH1 0x4 MSTORE PUSH1 0x24 PUSH0 REVERT JUMPDEST PUSH32 0x4E487B7100000000000000000000000000000000000000000000000000000000 PUSH0 MSTORE PUSH1 0x22 PUSH1 0x4 MSTORE PUSH1 0x24 PUSH0 REVERT JUMPDEST PUSH0 PUSH1 0x2 DUP3 DIV SWAP1 POP PUSH1 0x1 DUP3 AND DUP1 PUSH3 0x271 JUMPI PUSH1 0x7F DUP3 AND SWAP2 POP JUMPDEST PUSH1 0x20 DUP3 LT DUP2 SUB PUSH3 0x287 JUMPI PUSH3 0x286 PUSH3 0x22C JUMP JUMPDEST JUMPDEST POP SWAP2 SWAP1 POP JUMP JUMPDEST PUSH0 DUP2 SWAP1 POP DUP2 PUSH0 MSTORE PUSH1 0x20 PUSH0 KECCAK256 SWAP1 POP SWAP2 SWAP1 POP JUMP JUMPDEST PUSH0 PUSH1 0x20 PUSH1 0x1F DUP4 ADD DIV SWAP1 POP SWAP2 SWAP1 POP JUMP JUMPDEST PUSH0 DUP3 DUP3 SHL SWAP1 POP SWAP3 SWAP2 POP POP JUMP JUMPDEST PUSH0 PUSH1 0x8 DUP4 MUL PUSH3 0x2EB PUSH32 0xFFFFFFFFFFFFFFFFFFFFFFFFFFFFFFFFFFFFFFFFFFFFFFFFFFFFFFFFFFFFFFFF DUP3 PUSH3 0x2AE JUMP JUMPDEST PUSH3 0x2F7 DUP7 DUP4 PUSH3 0x2AE JUMP JUMPDEST SWAP6 POP DUP1 NOT DUP5 AND SWAP4 POP DUP1 DUP7 AND DUP5 OR SWAP3 POP POP POP SWAP4 SWAP3 POP POP POP JUMP JUMPDEST PUSH0 DUP2 SWAP1 POP SWAP2 SWAP1 POP JUMP JUMPDEST PUSH0 DUP2 SWAP1 POP SWAP2 SWAP1 POP JUMP JUMPDEST PUSH0 PUSH3 0x341 PUSH3 0x33B PUSH3 0x335 DUP5 PUSH3 0x30F JUMP JUMPDEST PUSH3 0x318 JUMP JUMPDEST PUSH3 0x30F JUMP JUMPDEST SWAP1 POP SWAP2 SWAP1 POP JUMP JUMPDEST PUSH0 DUP2 SWAP1 POP SWAP2 SWAP1 POP JUMP JUMPDEST PUSH3 0x35C DUP4 PUSH3 0x321 JUMP JUMPDEST PUSH3 0x374 PUSH3 0x36B DUP3 PUSH3 0x348 JUMP JUMPDEST DUP5 DUP5 SLOAD PUSH3 0x2BA JUMP JUMPDEST DUP3 SSTORE POP POP POP POP JUMP JUMPDEST PUSH0 SWAP1 JUMP JUMPDEST PUSH3 0x38A PUSH3 0x37C JUMP JUMPDEST PUSH3 0x397 DUP2 DUP5 DUP5 PUSH3 0x351 JUMP JUMPDEST POP POP POP JUMP JUMPDEST JUMPDEST DUP2 DUP2 LT ISZERO PUSH3 0x3BE JUMPI PUSH3 0x3B2 PUSH0 DUP3 PUSH3 0x380 JUMP JUMPDEST PUSH1 0x1 DUP2 ADD SWAP1 POP PUSH3 0x39D JUMP JUMPDEST POP POP JUMP JUMPDEST PUSH1 0x1F DUP3 GT ISZERO PUSH3 0x40D JUMPI PUSH3 0x3D7 DUP2 PUSH3 0x28D JUMP JUMPDEST PUSH3 0x3E2 DUP5 PUSH3 0x29F JUMP JUMPDEST DUP2 ADD PUSH1 0x20 DUP6 LT ISZERO PUSH3 0x3F2 JUMPI DUP2 SWAP1 POP JUMPDEST PUSH3 0x40A PUSH3 0x401 DUP6 PUSH3 0x29F JUMP JUMPDEST DUP4 ADD DUP3 PUSH3 0x39C JUMP JUMPDEST POP POP JUMPDEST POP POP POP JUMP JUMPDEST PUSH0 DUP3 DUP3 SHR SWAP1 POP SWAP3 SWAP2 POP POP JUMP JUMPDEST PUSH0 PUSH3 0x42F PUSH0 NOT DUP5 PUSH1 0x8 MUL PUSH3 0x412 JUMP JUMPDEST NOT DUP1 DUP4 AND SWAP2 POP POP SWAP3 SWAP2 POP POP JUMP JUMPDEST PUSH0 PUSH3 0x449 DUP4 DUP4 PUSH3 0x41E JUMP JUMPDEST SWAP2 POP DUP3 PUSH1 0x2 MUL DUP3 OR SWAP1 POP SWAP3 SWAP2 POP POP JUMP JUMPDEST PUSH3 0x464 DUP3 PUSH3 0x1F5 JUMP JUMPDEST PUSH8 0xFFFFFFFFFFFFFFFF DUP2 GT ISZERO PUSH3 0x480 JUMPI PUSH3 0x47F PUSH3 0x1FF JUMP JUMPDEST JUMPDEST PUSH3 0x48C DUP3 SLOAD PUSH3 0x259 JUMP JUMPDEST PUSH3 0x499 DUP3 DUP3 DUP6 PUSH3 0x3C2 JUMP JUMPDEST PUSH0 PUSH1 0x20 SWAP1 POP PUSH1 0x1F DUP4 GT PUSH1 0x1 DUP2 EQ PUSH3 0x4CF JUMPI PUSH0 DUP5 ISZERO PUSH3 0x4BA JUMPI DUP3 DUP8 ADD MLOAD SWAP1 POP JUMPDEST PUSH3 0x4C6 DUP6 DUP3 PUSH3 0x43C JUMP JUMPDEST DUP7 SSTORE POP PUSH3 0x535 JUMP JUMPDEST PUSH1 0x1F NOT DUP5 AND PUSH3 0x4DF DUP7 PUSH3 0x28D JUMP JUMPDEST PUSH0 JUMPDEST DUP3 DUP2 LT ISZERO PUSH3 0x508 JUMPI DUP5 DUP10 ADD MLOAD DUP3 SSTORE PUSH1 0x1 DUP3 ADD SWAP2 POP PUSH1 0x20 DUP6 ADD SWAP5 POP PUSH1 0x20 DUP2 ADD SWAP1 POP PUSH3 0x4E1 JUMP JUMPDEST DUP7 DUP4 LT ISZERO PUSH3 0x528 JUMPI DUP5 DUP10 ADD MLOAD PUSH3 0x524 PUSH1 0x1F DUP10 AND DUP3 PUSH3 0x41E JUMP JUMPDEST DUP4 SSTORE POP JUMPDEST PUSH1 0x1 PUSH1 0x2 DUP9 MUL ADD DUP9 SSTORE POP POP POP JUMPDEST POP POP POP POP POP POP JUMP JUMPDEST PUSH0 PUSH20 0xFFFFFFFFFFFFFFFFFFFFFFFFFFFFFFFFFFFFFFFF DUP3 AND SWAP1 POP SWAP2 SWAP1 POP JUMP JUMPDEST PUSH0 PUSH3 0x568 DUP3 PUSH3 0x53D JUMP JUMPDEST SWAP1 POP SWAP2 SWAP1 POP JUMP JUMPDEST PUSH3 0x57A DUP2 PUSH3 0x55C JUMP JUMPDEST DUP3 MSTORE POP POP JUMP JUMPDEST PUSH0 PUSH1 0x20 DUP3 ADD SWAP1 POP PUSH3 0x595 PUSH0 DUP4 ADD DUP5 PUSH3 0x56F JUMP JUMPDEST SWAP3 SWAP2 POP POP JUMP JUMPDEST PUSH2 0x2221 DUP1 PUSH3 0x5A9 PUSH0 CODECOPY PUSH0 RETURN INVALID PUSH1 0x80 PUSH1 0x40 MSTORE PUSH1 0x4 CALLDATASIZE LT PUSH2 0xFD JUMPI PUSH0 CALLDATALOAD PUSH1 0xE0 SHR DUP1 PUSH4 0x715018A6 GT PUSH2 0x94 JUMPI DUP1 PUSH4 0xA22CB465 GT PUSH2 0x63 JUMPI DUP1 PUSH4 0xA22CB465 EQ PUSH2 0x319 JUMPI DUP1 PUSH4 0xB88D4FDE EQ PUSH2 0x341 JUMPI DUP1 PUSH4 0xC87B56DD EQ PUSH2 0x369 JUMPI DUP1 PUSH4 0xE985E9C5 EQ PUSH2 0x3A5 JUMPI DUP1 PUSH4 0xF2FDE38B EQ PUSH2 0x3E1 JUMPI PUSH2 0xFD JUMP JUMPDEST DUP1 PUSH4 0x715018A6 EQ PUSH2 0x293 JUMPI DUP1 PUSH4 0x8DA5CB5B EQ PUSH2 0x2A9 JUMPI DUP1 PUSH4 0x95D89B41 EQ PUSH2 0x2D3 JUMPI DUP1 PUSH4 0xA0712D68 EQ PUSH2 0x2FD JUMPI PUSH2 0xFD JUMP JUMPDEST DUP1 PUSH4 0x23B872DD GT PUSH2 0xD0 JUMPI DUP1 PUSH4 0x23B872DD EQ PUSH2 0x1CB JUMPI DUP1 PUSH4 0x42842E0E EQ PUSH2 0x1F3 JUMPI DUP1 PUSH4 0x6352211E EQ PUSH2 0x21B JUMPI DUP1 PUSH4 0x70A08231 EQ PUSH2 0x257 JUMPI PUSH2 0xFD JUMP JUMPDEST DUP1 PUSH4 0x1FFC9A7 EQ PUSH2 0x101 JUMPI DUP1 PUSH4 0x6FDDE03 EQ PUSH2 0x13D JUMPI DUP1 PUSH4 0x81812FC EQ PUSH2 0x167 JUMPI DUP1 PUSH4 0x95EA7B3 EQ PUSH2 0x1A3 JUMPI JUMPDEST PUSH0 DUP1 REVERT JUMPDEST CALLVALUE DUP1 ISZERO PUSH2 0x10C JUMPI PUSH0 DUP1 REVERT JUMPDEST POP PUSH2 0x127 PUSH1 0x4 DUP1 CALLDATASIZE SUB DUP2 ADD SWAP1 PUSH2 0x122 SWAP2 SWAP1 PUSH2 0x196E JUMP JUMPDEST PUSH2 0x409 JUMP JUMPDEST PUSH1 0x40 MLOAD PUSH2 0x134 SWAP2 SWAP1 PUSH2 0x19B3 JUMP JUMPDEST PUSH1 0x40 MLOAD DUP1 SWAP2 SUB SWAP1 RETURN JUMPDEST CALLVALUE DUP1 ISZERO PUSH2 0x148 JUMPI PUSH0 DUP1 REVERT JUMPDEST POP PUSH2 0x151 PUSH2 0x4EA JUMP JUMPDEST PUSH1 0x40 MLOAD PUSH2 0x15E SWAP2 SWAP1 PUSH2 0x1A56 JUMP JUMPDEST PUSH1 0x40 MLOAD DUP1 SWAP2 SUB SWAP1 RETURN JUMPDEST CALLVALUE DUP1 ISZERO PUSH2 0x172 JUMPI PUSH0 DUP1 REVERT JUMPDEST POP PUSH2 0x18D PUSH1 0x4 DUP1 CALLDATASIZE SUB DUP2 ADD SWAP1 PUSH2 0x188 SWAP2 SWAP1 PUSH2 0x1AA9 JUMP JUMPDEST PUSH2 0x579 JUMP JUMPDEST PUSH1 0x40 MLOAD PUSH2 0x19A SWAP2 SWAP1 PUSH2 0x1B13 JUMP JUMPDEST PUSH1 0x40 MLOAD DUP1 SWAP2 SUB SWAP1 RETURN JUMPDEST CALLVALUE DUP1 ISZERO PUSH2 0x1AE JUMPI PUSH0 DUP1 REVERT JUMPDEST POP PUSH2 0x1C9 PUSH1 0x4 DUP1 CALLDATASIZE SUB DUP2 ADD SWAP1 PUSH2 0x1C4 SWAP2 SWAP1 PUSH2 0x1B56 JUMP JUMPDEST PUSH2 0x594 JUMP JUMPDEST STOP JUMPDEST CALLVALUE DUP1 ISZERO PUSH2 0x1D6 JUMPI PUSH0 DUP1 REVERT JUMPDEST POP PUSH2 0x1F1 PUSH1 0x4 DUP1 CALLDATASIZE SUB DUP2 ADD SWAP1 PUSH2 0x1EC SWAP2 SWAP1 PUSH2 0x1B94 JUMP JUMPDEST PUSH2 0x5AA JUMP JUMPDEST STOP JUMPDEST CALLVALUE DUP1 ISZERO PUSH2 0x1FE JUMPI PUSH0 DUP1 REVERT JUMPDEST POP PUSH2 0x219 PUSH1 0x4 DUP1 CALLDATASIZE SUB DUP2 ADD SWAP1 PUSH2 0x214 SWAP2 SWAP1 PUSH2 0x1B94 JUMP JUMPDEST PUSH2 0x6A9 JUMP JUMPDEST STOP JUMPDEST CALLVALUE DUP1 ISZERO PUSH2 0x226 JUMPI PUSH0 DUP1 REVERT JUMPDEST POP PUSH2 0x241 PUSH1 0x4 DUP1 CALLDATASIZE SUB DUP2 ADD SWAP1 PUSH2 0x23C SWAP2 SWAP1 PUSH2 0x1AA9 JUMP JUMPDEST PUSH2 0x6C8 JUMP JUMPDEST PUSH1 0x40 MLOAD PUSH2 0x24E SWAP2 SWAP1 PUSH2 0x1B13 JUMP JUMPDEST PUSH1 0x40 MLOAD DUP1 SWAP2 SUB SWAP1 RETURN JUMPDEST CALLVALUE DUP1 ISZERO PUSH2 0x262 JUMPI PUSH0 DUP1 REVERT JUMPDEST POP PUSH2 0x27D PUSH1 0x4 DUP1 CALLDATASIZE SUB DUP2 ADD SWAP1 PUSH2 0x278 SWAP2 SWAP1 PUSH2 0x1BE4 JUMP JUMPDEST PUSH2 0x6D9 JUMP JUMPDEST PUSH1 0x40 MLOAD PUSH2 0x28A SWAP2 SWAP1 PUSH2 0x1C1E JUMP JUMPDEST PUSH1 0x40 MLOAD DUP1 SWAP2 SUB SWAP1 RETURN JUMPDEST CALLVALUE DUP1 ISZERO PUSH2 0x29E JUMPI PUSH0 DUP1 REVERT JUMPDEST POP PUSH2 0x2A7 PUSH2 0x78F JUMP JUMPDEST STOP JUMPDEST CALLVALUE DUP1 ISZERO PUSH2 0x2B4 JUMPI PUSH0 DUP1 REVERT JUMPDEST POP PUSH2 0x2BD PUSH2 0x7A2 JUMP JUMPDEST PUSH1 0x40 MLOAD PUSH2 0x2CA SWAP2 SWAP1 PUSH2 0x1B13 JUMP JUMPDEST PUSH1 0x40 MLOAD DUP1 SWAP2 SUB SWAP1 RETURN JUMPDEST CALLVALUE DUP1 ISZERO PUSH2 0x2DE JUMPI PUSH0 DUP1 REVERT JUMPDEST POP PUSH2 0x2E7 PUSH2 0x7CA JUMP JUMPDEST PUSH1 0x40 MLOAD PUSH2 0x2F4 SWAP2 SWAP1 PUSH2 0x1A56 JUMP JUMPDEST PUSH1 0x40 MLOAD DUP1 SWAP2 SUB SWAP1 RETURN JUMPDEST PUSH2 0x317 PUSH1 0x4 DUP1 CALLDATASIZE SUB DUP2 ADD SWAP1 PUSH2 0x312 SWAP2 SWAP1 PUSH2 0x1AA9 JUMP JUMPDEST PUSH2 0x85A JUMP JUMPDEST STOP JUMPDEST CALLVALUE DUP1 ISZERO PUSH2 0x324 JUMPI PUSH0 DUP1 REVERT JUMPDEST POP PUSH2 0x33F PUSH1 0x4 DUP1 CALLDATASIZE SUB DUP2 ADD SWAP1 PUSH2 0x33A SWAP2 SWAP1 PUSH2 0x1C61 JUMP JUMPDEST PUSH2 0x90D JUMP JUMPDEST STOP JUMPDEST CALLVALUE DUP1 ISZERO PUSH2 0x34C JUMPI PUSH0 DUP1 REVERT JUMPDEST POP PUSH2 0x367 PUSH1 0x4 DUP1 CALLDATASIZE SUB DUP2 ADD SWAP1 PUSH2 0x362 SWAP2 SWAP1 PUSH2 0x1DCB JUMP JUMPDEST PUSH2 0x923 JUMP JUMPDEST STOP JUMPDEST CALLVALUE DUP1 ISZERO PUSH2 0x374 JUMPI PUSH0 DUP1 REVERT JUMPDEST POP PUSH2 0x38F PUSH1 0x4 DUP1 CALLDATASIZE SUB DUP2 ADD SWAP1 PUSH2 0x38A SWAP2 SWAP1 PUSH2 0x1AA9 JUMP JUMPDEST PUSH2 0x940 JUMP JUMPDEST PUSH1 0x40 MLOAD PUSH2 0x39C SWAP2 SWAP1 PUSH2 0x1A56 JUMP JUMPDEST PUSH1 0x40 MLOAD DUP1 SWAP2 SUB SWAP1 RETURN JUMPDEST CALLVALUE DUP1 ISZERO PUSH2 0x3B0 JUMPI PUSH0 DUP1 REVERT JUMPDEST POP PUSH2 0x3CB PUSH1 0x4 DUP1 CALLDATASIZE SUB DUP2 ADD SWAP1 PUSH2 0x3C6 SWAP2 SWAP1 PUSH2 0x1E4B JUMP JUMPDEST PUSH2 0x9A6 JUMP JUMPDEST PUSH1 0x40 MLOAD PUSH2 0x3D8 SWAP2 SWAP1 PUSH2 0x19B3 JUMP JUMPDEST PUSH1 0x40 MLOAD DUP1 SWAP2 SUB SWAP1 RETURN JUMPDEST CALLVALUE DUP1 ISZERO PUSH2 0x3EC JUMPI PUSH0 DUP1 REVERT JUMPDEST POP PUSH2 0x407 PUSH1 0x4 DUP1 CALLDATASIZE SUB DUP2 ADD SWAP1 PUSH2 0x402 SWAP2 SWAP1 PUSH2 0x1BE4 JUMP JUMPDEST PUSH2 0xA34 JUMP JUMPDEST STOP JUMPDEST PUSH0 PUSH32 0x80AC58CD00000000000000000000000000000000000000000000000000000000 PUSH28 0xFFFFFFFFFFFFFFFFFFFFFFFFFFFFFFFFFFFFFFFFFFFFFFFFFFFFFFFF NOT AND DUP3 PUSH28 0xFFFFFFFFFFFFFFFFFFFFFFFFFFFFFFFFFFFFFFFFFFFFFFFFFFFFFFFF NOT AND EQ DUP1 PUSH2 0x4D3 JUMPI POP PUSH32 0x5B5E139F00000000000000000000000000000000000000000000000000000000 PUSH28 0xFFFFFFFFFFFFFFFFFFFFFFFFFFFFFFFFFFFFFFFFFFFFFFFFFFFFFFFF NOT AND DUP3 PUSH28 0xFFFFFFFFFFFFFFFFFFFFFFFFFFFFFFFFFFFFFFFFFFFFFFFFFFFFFFFF NOT AND EQ JUMPDEST DUP1 PUSH2 0x4E3 JUMPI POP PUSH2 0x4E2 DUP3 PUSH2 0xAB8 JUMP JUMPDEST JUMPDEST SWAP1 POP SWAP2 SWAP1 POP JUMP JUMPDEST PUSH1 0x60 PUSH0 DUP1 SLOAD PUSH2 0x4F8 SWAP1 PUSH2 0x1EB6 JUMP JUMPDEST DUP1 PUSH1 0x1F ADD PUSH1 0x20 DUP1 SWAP2 DIV MUL PUSH1 0x20 ADD PUSH1 0x40 MLOAD SWAP1 DUP2 ADD PUSH1 0x40 MSTORE DUP1 SWAP3 SWAP2 SWAP1 DUP2 DUP2 MSTORE PUSH1 0x20 ADD DUP3 DUP1 SLOAD PUSH2 0x524 SWAP1 PUSH2 0x1EB6 JUMP JUMPDEST DUP1 ISZERO PUSH2 0x56F JUMPI DUP1 PUSH1 0x1F LT PUSH2 0x546 JUMPI PUSH2 0x100 DUP1 DUP4 SLOAD DIV MUL DUP4 MSTORE SWAP2 PUSH1 0x20 ADD SWAP2 PUSH2 0x56F JUMP JUMPDEST DUP3 ADD SWAP2 SWAP1 PUSH0 MSTORE PUSH1 0x20 PUSH0 KECCAK256 SWAP1 JUMPDEST DUP2 SLOAD DUP2 MSTORE SWAP1 PUSH1 0x1 ADD SWAP1 PUSH1 0x20 ADD DUP1 DUP4 GT PUSH2 0x552 JUMPI DUP3 SWAP1 SUB PUSH1 0x1F AND DUP3 ADD SWAP2 JUMPDEST POP POP POP POP POP SWAP1 POP SWAP1 JUMP JUMPDEST PUSH0 PUSH2 0x583 DUP3 PUSH2 0xB21 JUMP JUMPDEST POP PUSH2 0x58D DUP3 PUSH2 0xBA7 JUMP JUMPDEST SWAP1 POP SWAP2 SWAP1 POP JUMP JUMPDEST PUSH2 0x5A6 DUP3 DUP3 PUSH2 0x5A1 PUSH2 0xBE0 JUMP JUMPDEST PUSH2 0xBE7 JUMP JUMPDEST POP POP JUMP JUMPDEST PUSH0 PUSH20 0xFFFFFFFFFFFFFFFFFFFFFFFFFFFFFFFFFFFFFFFF AND DUP3 PUSH20 0xFFFFFFFFFFFFFFFFFFFFFFFFFFFFFFFFFFFFFFFF AND SUB PUSH2 0x61A JUMPI PUSH0 PUSH1 0x40 MLOAD PUSH32 0x64A0AE9200000000000000000000000000000000000000000000000000000000 DUP2 MSTORE PUSH1 0x4 ADD PUSH2 0x611 SWAP2 SWAP1 PUSH2 0x1B13 JUMP JUMPDEST PUSH1 0x40 MLOAD DUP1 SWAP2 SUB SWAP1 REVERT JUMPDEST PUSH0 PUSH2 0x62D DUP4 DUP4 PUSH2 0x628 PUSH2 0xBE0 JUMP JUMPDEST PUSH2 0xBF9 JUMP JUMPDEST SWAP1 POP DUP4 PUSH20 0xFFFFFFFFFFFFFFFFFFFFFFFFFFFFFFFFFFFFFFFF AND DUP2 PUSH20 0xFFFFFFFFFFFFFFFFFFFFFFFFFFFFFFFFFFFFFFFF AND EQ PUSH2 0x6A3 JUMPI DUP4 DUP3 DUP3 PUSH1 0x40 MLOAD PUSH32 0x64283D7B00000000000000000000000000000000000000000000000000000000 DUP2 MSTORE PUSH1 0x4 ADD PUSH2 0x69A SWAP4 SWAP3 SWAP2 SWAP1 PUSH2 0x1EE6 JUMP JUMPDEST PUSH1 0x40 MLOAD DUP1 SWAP2 SUB SWAP1 REVERT JUMPDEST POP POP POP POP JUMP JUMPDEST PUSH2 0x6C3 DUP4 DUP4 DUP4 PUSH1 0x40 MLOAD DUP1 PUSH1 0x20 ADD PUSH1 0x40 MSTORE DUP1 PUSH0 DUP2 MSTORE POP PUSH2 0x923 JUMP JUMPDEST POP POP POP JUMP JUMPDEST PUSH0 PUSH2 0x6D2 DUP3 PUSH2 0xB21 JUMP JUMPDEST SWAP1 POP SWAP2 SWAP1 POP JUMP JUMPDEST PUSH0 DUP1 PUSH20 0xFFFFFFFFFFFFFFFFFFFFFFFFFFFFFFFFFFFFFFFF AND DUP3 PUSH20 0xFFFFFFFFFFFFFFFFFFFFFFFFFFFFFFFFFFFFFFFF AND SUB PUSH2 0x74A JUMPI PUSH0 PUSH1 0x40 MLOAD PUSH32 0x89C62B6400000000000000000000000000000000000000000000000000000000 DUP2 MSTORE PUSH1 0x4 ADD PUSH2 0x741 SWAP2 SWAP1 PUSH2 0x1B13 JUMP JUMPDEST PUSH1 0x40 MLOAD DUP1 SWAP2 SUB SWAP1 REVERT JUMPDEST PUSH1 0x3 PUSH0 DUP4 PUSH20 0xFFFFFFFFFFFFFFFFFFFFFFFFFFFFFFFFFFFFFFFF AND PUSH20 0xFFFFFFFFFFFFFFFFFFFFFFFFFFFFFFFFFFFFFFFF AND DUP2 MSTORE PUSH1 0x20 ADD SWAP1 DUP2 MSTORE PUSH1 0x20 ADD PUSH0 KECCAK256 SLOAD SWAP1 POP SWAP2 SWAP1 POP JUMP JUMPDEST PUSH2 0x797 PUSH2 0xE04 JUMP JUMPDEST PUSH2 0x7A0 PUSH0 PUSH2 0xE8B JUMP JUMPDEST JUMP JUMPDEST PUSH0 PUSH1 0x6 PUSH0 SWAP1 SLOAD SWAP1 PUSH2 0x100 EXP SWAP1 DIV PUSH20 0xFFFFFFFFFFFFFFFFFFFFFFFFFFFFFFFFFFFFFFFF AND SWAP1 POP SWAP1 JUMP JUMPDEST PUSH1 0x60 PUSH1 0x1 DUP1 SLOAD PUSH2 0x7D9 SWAP1 PUSH2 0x1EB6 JUMP JUMPDEST DUP1 PUSH1 0x1F ADD PUSH1 0x20 DUP1 SWAP2 DIV MUL PUSH1 0x20 ADD PUSH1 0x40 MLOAD SWAP1 DUP2 ADD PUSH1 0x40 MSTORE DUP1 SWAP3 SWAP2 SWAP1 DUP2 DUP2 MSTORE PUSH1 0x20 ADD DUP3 DUP1 SLOAD PUSH2 0x805 SWAP1 PUSH2 0x1EB6 JUMP JUMPDEST DUP1 ISZERO PUSH2 0x850 JUMPI DUP1 PUSH1 0x1F LT PUSH2 0x827 JUMPI PUSH2 0x100 DUP1 DUP4 SLOAD DIV MUL DUP4 MSTORE SWAP2 PUSH1 0x20 ADD SWAP2 PUSH2 0x850 JUMP JUMPDEST DUP3 ADD SWAP2 SWAP1 PUSH0 MSTORE PUSH1 0x20 PUSH0 KECCAK256 SWAP1 JUMPDEST DUP2 SLOAD DUP2 MSTORE SWAP1 PUSH1 0x1 ADD SWAP1 PUSH1 0x20 ADD DUP1 DUP4 GT PUSH2 0x833 JUMPI DUP3 SWAP1 SUB PUSH1 0x1F AND DUP3 ADD SWAP2 JUMPDEST POP POP POP POP POP SWAP1 POP SWAP1 JUMP JUMPDEST PUSH1 0x1 DUP2 EQ PUSH2 0x89D JUMPI PUSH1 0x40 MLOAD PUSH32 0x8C379A000000000000000000000000000000000000000000000000000000000 DUP2 MSTORE PUSH1 0x4 ADD PUSH2 0x894 SWAP1 PUSH2 0x1F65 JUMP JUMPDEST PUSH1 0x40 MLOAD DUP1 SWAP2 SUB SWAP1 REVERT JUMPDEST PUSH7 0x2386F26FC10000 CALLVALUE EQ PUSH2 0x8E6 JUMPI PUSH1 0x40 MLOAD PUSH32 0x8C379A000000000000000000000000000000000000000000000000000000000 DUP2 MSTORE PUSH1 0x4 ADD PUSH2 0x8DD SWAP1 PUSH2 0x1FCD JUMP JUMPDEST PUSH1 0x40 MLOAD DUP1 SWAP2 SUB SWAP1 REVERT JUMPDEST PUSH0 PUSH1 0x7 PUSH0 DUP2 SLOAD DUP1 SWAP3 SWAP2 SWAP1 PUSH2 0x8F9 SWAP1 PUSH2 0x2018 JUMP JUMPDEST SWAP2 SWAP1 POP SSTORE SWAP1 POP PUSH2 0x909 CALLER DUP3 PUSH2 0xF4E JUMP JUMPDEST POP POP JUMP JUMPDEST PUSH2 0x91F PUSH2 0x918 PUSH2 0xBE0 JUMP JUMPDEST DUP4 DUP4 PUSH2 0x1041 JUMP JUMPDEST POP POP JUMP JUMPDEST PUSH2 0x92E DUP5 DUP5 DUP5 PUSH2 0x5AA JUMP JUMPDEST PUSH2 0x93A DUP5 DUP5 DUP5 DUP5 PUSH2 0x11AA JUMP JUMPDEST POP POP POP POP JUMP JUMPDEST PUSH1 0x60 PUSH2 0x94B DUP3 PUSH2 0xB21 JUMP JUMPDEST POP PUSH0 PUSH2 0x955 PUSH2 0x135C JUMP JUMPDEST SWAP1 POP PUSH0 DUP2 MLOAD GT PUSH2 0x973 JUMPI PUSH1 0x40 MLOAD DUP1 PUSH1 0x20 ADD PUSH1 0x40 MSTORE DUP1 PUSH0 DUP2 MSTORE POP PUSH2 0x99E JUMP JUMPDEST DUP1 PUSH2 0x97D DUP5 PUSH2 0x1372 JUMP JUMPDEST PUSH1 0x40 MLOAD PUSH1 0x20 ADD PUSH2 0x98E SWAP3 SWAP2 SWAP1 PUSH2 0x2099 JUMP JUMPDEST PUSH1 0x40 MLOAD PUSH1 0x20 DUP2 DUP4 SUB SUB DUP2 MSTORE SWAP1 PUSH1 0x40 MSTORE JUMPDEST SWAP2 POP POP SWAP2 SWAP1 POP JUMP JUMPDEST PUSH0 PUSH1 0x5 PUSH0 DUP5 PUSH20 0xFFFFFFFFFFFFFFFFFFFFFFFFFFFFFFFFFFFFFFFF AND PUSH20 0xFFFFFFFFFFFFFFFFFFFFFFFFFFFFFFFFFFFFFFFF AND DUP2 MSTORE PUSH1 0x20 ADD SWAP1 DUP2 MSTORE PUSH1 0x20 ADD PUSH0 KECCAK256 PUSH0 DUP4 PUSH20 0xFFFFFFFFFFFFFFFFFFFFFFFFFFFFFFFFFFFFFFFF AND PUSH20 0xFFFFFFFFFFFFFFFFFFFFFFFFFFFFFFFFFFFFFFFF AND DUP2 MSTORE PUSH1 0x20 ADD SWAP1 DUP2 MSTORE PUSH1 0x20 ADD PUSH0 KECCAK256 PUSH0 SWAP1 SLOAD SWAP1 PUSH2 0x100 EXP SWAP1 DIV PUSH1 0xFF AND SWAP1 POP SWAP3 SWAP2 POP POP JUMP JUMPDEST PUSH2 0xA3C PUSH2 0xE04 JUMP JUMPDEST PUSH0 PUSH20 0xFFFFFFFFFFFFFFFFFFFFFFFFFFFFFFFFFFFFFFFF AND DUP2 PUSH20 0xFFFFFFFFFFFFFFFFFFFFFFFFFFFFFFFFFFFFFFFF AND SUB PUSH2 0xAAC JUMPI PUSH0 PUSH1 0x40 MLOAD PUSH32 0x1E4FBDF700000000000000000000000000000000000000000000000000000000 DUP2 MSTORE PUSH1 0x4 ADD PUSH2 0xAA3 SWAP2 SWAP1 PUSH2 0x1B13 JUMP JUMPDEST PUSH1 0x40 MLOAD DUP1 SWAP2 SUB SWAP1 REVERT JUMPDEST PUSH2 0xAB5 DUP2 PUSH2 0xE8B JUMP JUMPDEST POP JUMP JUMPDEST PUSH0 PUSH32 0x1FFC9A700000000000000000000000000000000000000000000000000000000 PUSH28 0xFFFFFFFFFFFFFFFFFFFFFFFFFFFFFFFFFFFFFFFFFFFFFFFFFFFFFFFF NOT AND DUP3 PUSH28 0xFFFFFFFFFFFFFFFFFFFFFFFFFFFFFFFFFFFFFFFFFFFFFFFFFFFFFFFF NOT AND EQ SWAP1 POP SWAP2 SWAP1 POP JUMP JUMPDEST PUSH0 DUP1 PUSH2 0xB2C DUP4 PUSH2 0x143C JUMP JUMPDEST SWAP1 POP PUSH0 PUSH20 0xFFFFFFFFFFFFFFFFFFFFFFFFFFFFFFFFFFFFFFFF AND DUP2 PUSH20 0xFFFFFFFFFFFFFFFFFFFFFFFFFFFFFFFFFFFFFFFF AND SUB PUSH2 0xB9E JUMPI DUP3 PUSH1 0x40 MLOAD PUSH32 0x7E27328900000000000000000000000000000000000000000000000000000000 DUP2 MSTORE PUSH1 0x4 ADD PUSH2 0xB95 SWAP2 SWAP1 PUSH2 0x1C1E JUMP JUMPDEST PUSH1 0x40 MLOAD DUP1 SWAP2 SUB SWAP1 REVERT JUMPDEST DUP1 SWAP2 POP POP SWAP2 SWAP1 POP JUMP JUMPDEST PUSH0 PUSH1 0x4 PUSH0 DUP4 DUP2 MSTORE PUSH1 0x20 ADD SWAP1 DUP2 MSTORE PUSH1 0x20 ADD PUSH0 KECCAK256 PUSH0 SWAP1 SLOAD SWAP1 PUSH2 0x100 EXP SWAP1 DIV PUSH20 0xFFFFFFFFFFFFFFFFFFFFFFFFFFFFFFFFFFFFFFFF AND SWAP1 POP SWAP2 SWAP1 POP JUMP JUMPDEST PUSH0 CALLER SWAP1 POP SWAP1 JUMP JUMPDEST PUSH2 0xBF4 DUP4 DUP4 DUP4 PUSH1 0x1 PUSH2 0x1475 JUMP JUMPDEST POP POP POP JUMP JUMPDEST PUSH0 DUP1 PUSH2 0xC04 DUP5 PUSH2 0x143C JUMP JUMPDEST SWAP1 POP PUSH0 PUSH20 0xFFFFFFFFFFFFFFFFFFFFFFFFFFFFFFFFFFFFFFFF AND DUP4 PUSH20 0xFFFFFFFFFFFFFFFFFFFFFFFFFFFFFFFFFFFFFFFF AND EQ PUSH2 0xC45 JUMPI PUSH2 0xC44 DUP2 DUP5 DUP7 PUSH2 0x1634 JUMP JUMPDEST JUMPDEST PUSH0 PUSH20 0xFFFFFFFFFFFFFFFFFFFFFFFFFFFFFFFFFFFFFFFF AND DUP2 PUSH20 0xFFFFFFFFFFFFFFFFFFFFFFFFFFFFFFFFFFFFFFFF AND EQ PUSH2 0xCD0 JUMPI PUSH2 0xC84 PUSH0 DUP6 PUSH0 DUP1 PUSH2 0x1475 JUMP JUMPDEST PUSH1 0x1 PUSH1 0x3 PUSH0 DUP4 PUSH20 0xFFFFFFFFFFFFFFFFFFFFFFFFFFFFFFFFFFFFFFFF AND PUSH20 0xFFFFFFFFFFFFFFFFFFFFFFFFFFFFFFFFFFFFFFFF AND DUP2 MSTORE PUSH1 0x20 ADD SWAP1 DUP2 MSTORE PUSH1 0x20 ADD PUSH0 KECCAK256 PUSH0 DUP3 DUP3 SLOAD SUB SWAP3 POP POP DUP2 SWAP1 SSTORE POP JUMPDEST PUSH0 PUSH20 0xFFFFFFFFFFFFFFFFFFFFFFFFFFFFFFFFFFFFFFFF AND DUP6 PUSH20 0xFFFFFFFFFFFFFFFFFFFFFFFFFFFFFFFFFFFFFFFF AND EQ PUSH2 0xD4F JUMPI PUSH1 0x1 PUSH1 0x3 PUSH0 DUP8 PUSH20 0xFFFFFFFFFFFFFFFFFFFFFFFFFFFFFFFFFFFFFFFF AND PUSH20 0xFFFFFFFFFFFFFFFFFFFFFFFFFFFFFFFFFFFFFFFF AND DUP2 MSTORE PUSH1 0x20 ADD SWAP1 DUP2 MSTORE PUSH1 0x20 ADD PUSH0 KECCAK256 PUSH0 DUP3 DUP3 SLOAD ADD SWAP3 POP POP DUP2 SWAP1 SSTORE POP JUMPDEST DUP5 PUSH1 0x2 PUSH0 DUP7 DUP2 MSTORE PUSH1 0x20 ADD SWAP1 DUP2 MSTORE PUSH1 0x20 ADD PUSH0 KECCAK256 PUSH0 PUSH2 0x100 EXP DUP2 SLOAD DUP2 PUSH20 0xFFFFFFFFFFFFFFFFFFFFFFFFFFFFFFFFFFFFFFFF MUL NOT AND SWAP1 DUP4 PUSH20 0xFFFFFFFFFFFFFFFFFFFFFFFFFFFFFFFFFFFFFFFF AND MUL OR SWAP1 SSTORE POP DUP4 DUP6 PUSH20 0xFFFFFFFFFFFFFFFFFFFFFFFFFFFFFFFFFFFFFFFF AND DUP3 PUSH20 0xFFFFFFFFFFFFFFFFFFFFFFFFFFFFFFFFFFFFFFFF AND PUSH32 0xDDF252AD1BE2C89B69C2B068FC378DAA952BA7F163C4A11628F55A4DF523B3EF PUSH1 0x40 MLOAD PUSH1 0x40 MLOAD DUP1 SWAP2 SUB SWAP1 LOG4 DUP1 SWAP2 POP POP SWAP4 SWAP3 POP POP POP JUMP JUMPDEST PUSH2 0xE0C PUSH2 0xBE0 JUMP JUMPDEST PUSH20 0xFFFFFFFFFFFFFFFFFFFFFFFFFFFFFFFFFFFFFFFF AND PUSH2 0xE2A PUSH2 0x7A2 JUMP JUMPDEST PUSH20 0xFFFFFFFFFFFFFFFFFFFFFFFFFFFFFFFFFFFFFFFF AND EQ PUSH2 0xE89 JUMPI PUSH2 0xE4D PUSH2 0xBE0 JUMP JUMPDEST PUSH1 0x40 MLOAD PUSH32 0x118CDAA700000000000000000000000000000000000000000000000000000000 DUP2 MSTORE PUSH1 0x4 ADD PUSH2 0xE80 SWAP2 SWAP1 PUSH2 0x1B13 JUMP JUMPDEST PUSH1 0x40 MLOAD DUP1 SWAP2 SUB SWAP1 REVERT JUMPDEST JUMP JUMPDEST PUSH0 PUSH1 0x6 PUSH0 SWAP1 SLOAD SWAP1 PUSH2 0x100 EXP SWAP1 DIV PUSH20 0xFFFFFFFFFFFFFFFFFFFFFFFFFFFFFFFFFFFFFFFF AND SWAP1 POP DUP2 PUSH1 0x6 PUSH0 PUSH2 0x100 EXP DUP2 SLOAD DUP2 PUSH20 0xFFFFFFFFFFFFFFFFFFFFFFFFFFFFFFFFFFFFFFFF MUL NOT AND SWAP1 DUP4 PUSH20 0xFFFFFFFFFFFFFFFFFFFFFFFFFFFFFFFFFFFFFFFF AND MUL OR SWAP1 SSTORE POP DUP2 PUSH20 0xFFFFFFFFFFFFFFFFFFFFFFFFFFFFFFFFFFFFFFFF AND DUP2 PUSH20 0xFFFFFFFFFFFFFFFFFFFFFFFFFFFFFFFFFFFFFFFF AND PUSH32 0x8BE0079C531659141344CD1FD0A4F28419497F9722A3DAAFE3B4186F6B6457E0 PUSH1 0x40 MLOAD PUSH1 0x40 MLOAD DUP1 SWAP2 SUB SWAP1 LOG3 POP POP JUMP JUMPDEST PUSH0 PUSH20 0xFFFFFFFFFFFFFFFFFFFFFFFFFFFFFFFFFFFFFFFF AND DUP3 PUSH20 0xFFFFFFFFFFFFFFFFFFFFFFFFFFFFFFFFFFFFFFFF AND SUB PUSH2 0xFBE JUMPI PUSH0 PUSH1 0x40 MLOAD PUSH32 0x64A0AE9200000000000000000000000000000000000000000000000000000000 DUP2 MSTORE PUSH1 0x4 ADD PUSH2 0xFB5 SWAP2 SWAP1 PUSH2 0x1B13 JUMP JUMPDEST PUSH1 0x40 MLOAD DUP1 SWAP2 SUB SWAP1 REVERT JUMPDEST PUSH0 PUSH2 0xFCA DUP4 DUP4 PUSH0 PUSH2 0xBF9 JUMP JUMPDEST SWAP1 POP PUSH0 PUSH20 0xFFFFFFFFFFFFFFFFFFFFFFFFFFFFFFFFFFFFFFFF AND DUP2 PUSH20 0xFFFFFFFFFFFFFFFFFFFFFFFFFFFFFFFFFFFFFFFF AND EQ PUSH2 0x103C JUMPI PUSH0 PUSH1 0x40 MLOAD PUSH32 0x73C6AC6E00000000000000000000000000000000000000000000000000000000 DUP2 MSTORE PUSH1 0x4 ADD PUSH2 0x1033 SWAP2 SWAP1 PUSH2 0x1B13 JUMP JUMPDEST PUSH1 0x40 MLOAD DUP1 SWAP2 SUB SWAP1 REVERT JUMPDEST POP POP POP JUMP JUMPDEST PUSH0 PUSH20 0xFFFFFFFFFFFFFFFFFFFFFFFFFFFFFFFFFFFFFFFF AND DUP3 PUSH20 0xFFFFFFFFFFFFFFFFFFFFFFFFFFFFFFFFFFFFFFFF AND SUB PUSH2 0x10B1 JUMPI DUP2 PUSH1 0x40 MLOAD PUSH32 0x5B08BA1800000000000000000000000000000000000000000000000000000000 DUP2 MSTORE PUSH1 0x4 ADD PUSH2 0x10A8 SWAP2 SWAP1 PUSH2 0x1B13 JUMP JUMPDEST PUSH1 0x40 MLOAD DUP1 SWAP2 SUB SWAP1 REVERT JUMPDEST DUP1 PUSH1 0x5 PUSH0 DUP6 PUSH20 0xFFFFFFFFFFFFFFFFFFFFFFFFFFFFFFFFFFFFFFFF AND PUSH20 0xFFFFFFFFFFFFFFFFFFFFFFFFFFFFFFFFFFFFFFFF AND DUP2 MSTORE PUSH1 0x20 ADD SWAP1 DUP2 MSTORE PUSH1 0x20 ADD PUSH0 KECCAK256 PUSH0 DUP5 PUSH20 0xFFFFFFFFFFFFFFFFFFFFFFFFFFFFFFFFFFFFFFFF AND PUSH20 0xFFFFFFFFFFFFFFFFFFFFFFFFFFFFFFFFFFFFFFFF AND DUP2 MSTORE PUSH1 0x20 ADD SWAP1 DUP2 MSTORE PUSH1 0x20 ADD PUSH0 KECCAK256 PUSH0 PUSH2 0x100 EXP DUP2 SLOAD DUP2 PUSH1 0xFF MUL NOT AND SWAP1 DUP4 ISZERO ISZERO MUL OR SWAP1 SSTORE POP DUP2 PUSH20 0xFFFFFFFFFFFFFFFFFFFFFFFFFFFFFFFFFFFFFFFF AND DUP4 PUSH20 0xFFFFFFFFFFFFFFFFFFFFFFFFFFFFFFFFFFFFFFFF AND PUSH32 0x17307EAB39AB6107E8899845AD3D59BD9653F200F220920489CA2B5937696C31 DUP4 PUSH1 0x40 MLOAD PUSH2 0x119D SWAP2 SWAP1 PUSH2 0x19B3 JUMP JUMPDEST PUSH1 0x40 MLOAD DUP1 SWAP2 SUB SWAP1 LOG3 POP POP POP JUMP JUMPDEST PUSH0 DUP4 PUSH20 0xFFFFFFFFFFFFFFFFFFFFFFFFFFFFFFFFFFFFFFFF AND EXTCODESIZE GT ISZERO PUSH2 0x1356 JUMPI DUP3 PUSH20 0xFFFFFFFFFFFFFFFFFFFFFFFFFFFFFFFFFFFFFFFF AND PUSH4 0x150B7A02 PUSH2 0x11ED PUSH2 0xBE0 JUMP JUMPDEST DUP7 DUP6 DUP6 PUSH1 0x40 MLOAD DUP6 PUSH4 0xFFFFFFFF AND PUSH1 0xE0 SHL DUP2 MSTORE PUSH1 0x4 ADD PUSH2 0x120F SWAP5 SWAP4 SWAP3 SWAP2 SWAP1 PUSH2 0x210E JUMP JUMPDEST PUSH1 0x20 PUSH1 0x40 MLOAD DUP1 DUP4 SUB DUP2 PUSH0 DUP8 GAS CALL SWAP3 POP POP POP DUP1 ISZERO PUSH2 0x124A JUMPI POP PUSH1 0x40 MLOAD RETURNDATASIZE PUSH1 0x1F NOT PUSH1 0x1F DUP3 ADD AND DUP3 ADD DUP1 PUSH1 0x40 MSTORE POP DUP2 ADD SWAP1 PUSH2 0x1247 SWAP2 SWAP1 PUSH2 0x216C JUMP JUMPDEST PUSH1 0x1 JUMPDEST PUSH2 0x12CB JUMPI RETURNDATASIZE DUP1 PUSH0 DUP2 EQ PUSH2 0x1278 JUMPI PUSH1 0x40 MLOAD SWAP2 POP PUSH1 0x1F NOT PUSH1 0x3F RETURNDATASIZE ADD AND DUP3 ADD PUSH1 0x40 MSTORE RETURNDATASIZE DUP3 MSTORE RETURNDATASIZE PUSH0 PUSH1 0x20 DUP5 ADD RETURNDATACOPY PUSH2 0x127D JUMP JUMPDEST PUSH1 0x60 SWAP2 POP JUMPDEST POP PUSH0 DUP2 MLOAD SUB PUSH2 0x12C3 JUMPI DUP4 PUSH1 0x40 MLOAD PUSH32 0x64A0AE9200000000000000000000000000000000000000000000000000000000 DUP2 MSTORE PUSH1 0x4 ADD PUSH2 0x12BA SWAP2 SWAP1 PUSH2 0x1B13 JUMP JUMPDEST PUSH1 0x40 MLOAD DUP1 SWAP2 SUB SWAP1 REVERT JUMPDEST DUP1 MLOAD DUP2 PUSH1 0x20 ADD REVERT JUMPDEST PUSH4 0x150B7A02 PUSH1 0xE0 SHL PUSH28 0xFFFFFFFFFFFFFFFFFFFFFFFFFFFFFFFFFFFFFFFFFFFFFFFFFFFFFFFF NOT AND DUP2 PUSH28 0xFFFFFFFFFFFFFFFFFFFFFFFFFFFFFFFFFFFFFFFFFFFFFFFFFFFFFFFF NOT AND EQ PUSH2 0x1354 JUMPI DUP4 PUSH1 0x40 MLOAD PUSH32 0x64A0AE9200000000000000000000000000000000000000000000000000000000 DUP2 MSTORE PUSH1 0x4 ADD PUSH2 0x134B SWAP2 SWAP1 PUSH2 0x1B13 JUMP JUMPDEST PUSH1 0x40 MLOAD DUP1 SWAP2 SUB SWAP1 REVERT JUMPDEST POP JUMPDEST POP POP POP POP JUMP JUMPDEST PUSH1 0x60 PUSH1 0x40 MLOAD DUP1 PUSH1 0x20 ADD PUSH1 0x40 MSTORE DUP1 PUSH0 DUP2 MSTORE POP SWAP1 POP SWAP1 JUMP JUMPDEST PUSH1 0x60 PUSH0 PUSH1 0x1 PUSH2 0x1380 DUP5 PUSH2 0x16F7 JUMP JUMPDEST ADD SWAP1 POP PUSH0 DUP2 PUSH8 0xFFFFFFFFFFFFFFFF DUP2 GT ISZERO PUSH2 0x139E JUMPI PUSH2 0x139D PUSH2 0x1CA7 JUMP JUMPDEST JUMPDEST PUSH1 0x40 MLOAD SWAP1 DUP1 DUP3 MSTORE DUP1 PUSH1 0x1F ADD PUSH1 0x1F NOT AND PUSH1 0x20 ADD DUP3 ADD PUSH1 0x40 MSTORE DUP1 ISZERO PUSH2 0x13D0 JUMPI DUP2 PUSH1 0x20 ADD PUSH1 0x1 DUP3 MUL DUP1 CALLDATASIZE DUP4 CALLDATACOPY DUP1 DUP3 ADD SWAP2 POP POP SWAP1 POP JUMPDEST POP SWAP1 POP PUSH0 DUP3 PUSH1 0x20 ADD DUP3 ADD SWAP1 POP JUMPDEST PUSH1 0x1 ISZERO PUSH2 0x1431 JUMPI DUP1 DUP1 PUSH1 0x1 SWAP1 SUB SWAP2 POP POP PUSH32 0x3031323334353637383961626364656600000000000000000000000000000000 PUSH1 0xA DUP7 MOD BYTE DUP2 MSTORE8 PUSH1 0xA DUP6 DUP2 PUSH2 0x1426 JUMPI PUSH2 0x1425 PUSH2 0x2197 JUMP JUMPDEST JUMPDEST DIV SWAP5 POP PUSH0 DUP6 SUB PUSH2 0x13DD JUMPI JUMPDEST DUP2 SWAP4 POP POP POP POP SWAP2 SWAP1 POP JUMP JUMPDEST PUSH0 PUSH1 0x2 PUSH0 DUP4 DUP2 MSTORE PUSH1 0x20 ADD SWAP1 DUP2 MSTORE PUSH1 0x20 ADD PUSH0 KECCAK256 PUSH0 SWAP1 SLOAD SWAP1 PUSH2 0x100 EXP SWAP1 DIV PUSH20 0xFFFFFFFFFFFFFFFFFFFFFFFFFFFFFFFFFFFFFFFF AND SWAP1 POP SWAP2 SWAP1 POP JUMP JUMPDEST DUP1 DUP1 PUSH2 0x14AD JUMPI POP PUSH0 PUSH20 0xFFFFFFFFFFFFFFFFFFFFFFFFFFFFFFFFFFFFFFFF AND DUP3 PUSH20 0xFFFFFFFFFFFFFFFFFFFFFFFFFFFFFFFFFFFFFFFF AND EQ ISZERO JUMPDEST ISZERO PUSH2 0x15DF JUMPI PUSH0 PUSH2 0x14BC DUP5 PUSH2 0xB21 JUMP JUMPDEST SWAP1 POP PUSH0 PUSH20 0xFFFFFFFFFFFFFFFFFFFFFFFFFFFFFFFFFFFFFFFF AND DUP4 PUSH20 0xFFFFFFFFFFFFFFFFFFFFFFFFFFFFFFFFFFFFFFFF AND EQ ISZERO DUP1 ISZERO PUSH2 0x1526 JUMPI POP DUP3 PUSH20 0xFFFFFFFFFFFFFFFFFFFFFFFFFFFFFFFFFFFFFFFF AND DUP2 PUSH20 0xFFFFFFFFFFFFFFFFFFFFFFFFFFFFFFFFFFFFFFFF AND EQ ISZERO JUMPDEST DUP1 ISZERO PUSH2 0x1539 JUMPI POP PUSH2 0x1537 DUP2 DUP5 PUSH2 0x9A6 JUMP JUMPDEST ISZERO JUMPDEST ISZERO PUSH2 0x157B JUMPI DUP3 PUSH1 0x40 MLOAD PUSH32 0xA9FBF51F00000000000000000000000000000000000000000000000000000000 DUP2 MSTORE PUSH1 0x4 ADD PUSH2 0x1572 SWAP2 SWAP1 PUSH2 0x1B13 JUMP JUMPDEST PUSH1 0x40 MLOAD DUP1 SWAP2 SUB SWAP1 REVERT JUMPDEST DUP2 ISZERO PUSH2 0x15DD JUMPI DUP4 DUP6 PUSH20 0xFFFFFFFFFFFFFFFFFFFFFFFFFFFFFFFFFFFFFFFF AND DUP3 PUSH20 0xFFFFFFFFFFFFFFFFFFFFFFFFFFFFFFFFFFFFFFFF AND PUSH32 0x8C5BE1E5EBEC7D5BD14F71427D1E84F3DD0314C0F7B2291E5B200AC8C7C3B925 PUSH1 0x40 MLOAD PUSH1 0x40 MLOAD DUP1 SWAP2 SUB SWAP1 LOG4 JUMPDEST POP JUMPDEST DUP4 PUSH1 0x4 PUSH0 DUP6 DUP2 MSTORE PUSH1 0x20 ADD SWAP1 DUP2 MSTORE PUSH1 0x20 ADD PUSH0 KECCAK256 PUSH0 PUSH2 0x100 EXP DUP2 SLOAD DUP2 PUSH20 0xFFFFFFFFFFFFFFFFFFFFFFFFFFFFFFFFFFFFFFFF MUL NOT AND SWAP1 DUP4 PUSH20 0xFFFFFFFFFFFFFFFFFFFFFFFFFFFFFFFFFFFFFFFF AND MUL OR SWAP1 SSTORE POP POP POP POP POP JUMP JUMPDEST PUSH2 0x163F DUP4 DUP4 DUP4 PUSH2 0x1848 JUMP JUMPDEST PUSH2 0x16F2 JUMPI PUSH0 PUSH20 0xFFFFFFFFFFFFFFFFFFFFFFFFFFFFFFFFFFFFFFFF AND DUP4 PUSH20 0xFFFFFFFFFFFFFFFFFFFFFFFFFFFFFFFFFFFFFFFF AND SUB PUSH2 0x16B3 JUMPI DUP1 PUSH1 0x40 MLOAD PUSH32 0x7E27328900000000000000000000000000000000000000000000000000000000 DUP2 MSTORE PUSH1 0x4 ADD PUSH2 0x16AA SWAP2 SWAP1 PUSH2 0x1C1E JUMP JUMPDEST PUSH1 0x40 MLOAD DUP1 SWAP2 SUB SWAP1 REVERT JUMPDEST DUP2 DUP2 PUSH1 0x40 MLOAD PUSH32 0x177E802F00000000000000000000000000000000000000000000000000000000 DUP2 MSTORE PUSH1 0x4 ADD PUSH2 0x16E9 SWAP3 SWAP2 SWAP1 PUSH2 0x21C4 JUMP JUMPDEST PUSH1 0x40 MLOAD DUP1 SWAP2 SUB SWAP1 REVERT JUMPDEST POP POP POP JUMP JUMPDEST PUSH0 DUP1 PUSH0 SWAP1 POP PUSH27 0x184F03E93FF9F4DAA797ED6E38ED64BF6A1F010000000000000000 DUP4 LT PUSH2 0x1753 JUMPI PUSH27 0x184F03E93FF9F4DAA797ED6E38ED64BF6A1F010000000000000000 DUP4 DUP2 PUSH2 0x1749 JUMPI PUSH2 0x1748 PUSH2 0x2197 JUMP JUMPDEST JUMPDEST DIV SWAP3 POP PUSH1 0x40 DUP2 ADD SWAP1 POP JUMPDEST PUSH14 0x4EE2D6D415B85ACEF8100000000 DUP4 LT PUSH2 0x1790 JUMPI PUSH14 0x4EE2D6D415B85ACEF8100000000 DUP4 DUP2 PUSH2 0x1786 JUMPI PUSH2 0x1785 PUSH2 0x2197 JUMP JUMPDEST JUMPDEST DIV SWAP3 POP PUSH1 0x20 DUP2 ADD SWAP1 POP JUMPDEST PUSH7 0x2386F26FC10000 DUP4 LT PUSH2 0x17BF JUMPI PUSH7 0x2386F26FC10000 DUP4 DUP2 PUSH2 0x17B5 JUMPI PUSH2 0x17B4 PUSH2 0x2197 JUMP JUMPDEST JUMPDEST DIV SWAP3 POP PUSH1 0x10 DUP2 ADD SWAP1 POP JUMPDEST PUSH4 0x5F5E100 DUP4 LT PUSH2 0x17E8 JUMPI PUSH4 0x5F5E100 DUP4 DUP2 PUSH2 0x17DE JUMPI PUSH2 0x17DD PUSH2 0x2197 JUMP JUMPDEST JUMPDEST DIV SWAP3 POP PUSH1 0x8 DUP2 ADD SWAP1 POP JUMPDEST PUSH2 0x2710 DUP4 LT PUSH2 0x180D JUMPI PUSH2 0x2710 DUP4 DUP2 PUSH2 0x1803 JUMPI PUSH2 0x1802 PUSH2 0x2197 JUMP JUMPDEST JUMPDEST DIV SWAP3 POP PUSH1 0x4 DUP2 ADD SWAP1 POP JUMPDEST PUSH1 0x64 DUP4 LT PUSH2 0x1830 JUMPI PUSH1 0x64 DUP4 DUP2 PUSH2 0x1826 JUMPI PUSH2 0x1825 PUSH2 0x2197 JUMP JUMPDEST JUMPDEST DIV SWAP3 POP PUSH1 0x2 DUP2 ADD SWAP1 POP JUMPDEST PUSH1 0xA DUP4 LT PUSH2 0x183F JUMPI PUSH1 0x1 DUP2 ADD SWAP1 POP JUMPDEST DUP1 SWAP2 POP POP SWAP2 SWAP1 POP JUMP JUMPDEST PUSH0 DUP1 PUSH20 0xFFFFFFFFFFFFFFFFFFFFFFFFFFFFFFFFFFFFFFFF AND DUP4 PUSH20 0xFFFFFFFFFFFFFFFFFFFFFFFFFFFFFFFFFFFFFFFF AND EQ ISZERO DUP1 ISZERO PUSH2 0x18FF JUMPI POP DUP3 PUSH20 0xFFFFFFFFFFFFFFFFFFFFFFFFFFFFFFFFFFFFFFFF AND DUP5 PUSH20 0xFFFFFFFFFFFFFFFFFFFFFFFFFFFFFFFFFFFFFFFF AND EQ DUP1 PUSH2 0x18C0 JUMPI POP PUSH2 0x18BF DUP5 DUP5 PUSH2 0x9A6 JUMP JUMPDEST JUMPDEST DUP1 PUSH2 0x18FE JUMPI POP DUP3 PUSH20 0xFFFFFFFFFFFFFFFFFFFFFFFFFFFFFFFFFFFFFFFF AND PUSH2 0x18E6 DUP4 PUSH2 0xBA7 JUMP JUMPDEST PUSH20 0xFFFFFFFFFFFFFFFFFFFFFFFFFFFFFFFFFFFFFFFF AND EQ JUMPDEST JUMPDEST SWAP1 POP SWAP4 SWAP3 POP POP POP JUMP JUMPDEST PUSH0 PUSH1 0x40 MLOAD SWAP1 POP SWAP1 JUMP JUMPDEST PUSH0 DUP1 REVERT JUMPDEST PUSH0 DUP1 REVERT JUMPDEST PUSH0 PUSH32 0xFFFFFFFF00000000000000000000000000000000000000000000000000000000 DUP3 AND SWAP1 POP SWAP2 SWAP1 POP JUMP JUMPDEST PUSH2 0x194D DUP2 PUSH2 0x1919 JUMP JUMPDEST DUP2 EQ PUSH2 0x1957 JUMPI PUSH0 DUP1 REVERT JUMPDEST POP JUMP JUMPDEST PUSH0 DUP2 CALLDATALOAD SWAP1 POP PUSH2 0x1968 DUP2 PUSH2 0x1944 JUMP JUMPDEST SWAP3 SWAP2 POP POP JUMP JUMPDEST PUSH0 PUSH1 0x20 DUP3 DUP5 SUB SLT ISZERO PUSH2 0x1983 JUMPI PUSH2 0x1982 PUSH2 0x1911 JUMP JUMPDEST JUMPDEST PUSH0 PUSH2 0x1990 DUP5 DUP3 DUP6 ADD PUSH2 0x195A JUMP JUMPDEST SWAP2 POP POP SWAP3 SWAP2 POP POP JUMP JUMPDEST PUSH0 DUP2 ISZERO ISZERO SWAP1 POP SWAP2 SWAP1 POP JUMP JUMPDEST PUSH2 0x19AD DUP2 PUSH2 0x1999 JUMP JUMPDEST DUP3 MSTORE POP POP JUMP JUMPDEST PUSH0 PUSH1 0x20 DUP3 ADD SWAP1 POP PUSH2 0x19C6 PUSH0 DUP4 ADD DUP5 PUSH2 0x19A4 JUMP JUMPDEST SWAP3 SWAP2 POP POP JUMP JUMPDEST PUSH0 DUP2 MLOAD SWAP1 POP SWAP2 SWAP1 POP JUMP JUMPDEST PUSH0 DUP3 DUP3 MSTORE PUSH1 0x20 DUP3 ADD SWAP1 POP SWAP3 SWAP2 POP POP JUMP JUMPDEST PUSH0 JUMPDEST DUP4 DUP2 LT ISZERO PUSH2 0x1A03 JUMPI DUP1 DUP3 ADD MLOAD DUP2 DUP5 ADD MSTORE PUSH1 0x20 DUP2 ADD SWAP1 POP PUSH2 0x19E8 JUMP JUMPDEST PUSH0 DUP5 DUP5 ADD MSTORE POP POP POP POP JUMP JUMPDEST PUSH0 PUSH1 0x1F NOT PUSH1 0x1F DUP4 ADD AND SWAP1 POP SWAP2 SWAP1 POP JUMP JUMPDEST PUSH0 PUSH2 0x1A28 DUP3 PUSH2 0x19CC JUMP JUMPDEST PUSH2 0x1A32 DUP2 DUP6 PUSH2 0x19D6 JUMP JUMPDEST SWAP4 POP PUSH2 0x1A42 DUP2 DUP6 PUSH1 0x20 DUP7 ADD PUSH2 0x19E6 JUMP JUMPDEST PUSH2 0x1A4B DUP2 PUSH2 0x1A0E JUMP JUMPDEST DUP5 ADD SWAP2 POP POP SWAP3 SWAP2 POP POP JUMP JUMPDEST PUSH0 PUSH1 0x20 DUP3 ADD SWAP1 POP DUP2 DUP2 SUB PUSH0 DUP4 ADD MSTORE PUSH2 0x1A6E DUP2 DUP5 PUSH2 0x1A1E JUMP JUMPDEST SWAP1 POP SWAP3 SWAP2 POP POP JUMP JUMPDEST PUSH0 DUP2 SWAP1 POP SWAP2 SWAP1 POP JUMP JUMPDEST PUSH2 0x1A88 DUP2 PUSH2 0x1A76 JUMP JUMPDEST DUP2 EQ PUSH2 0x1A92 JUMPI PUSH0 DUP1 REVERT JUMPDEST POP JUMP JUMPDEST PUSH0 DUP2 CALLDATALOAD SWAP1 POP PUSH2 0x1AA3 DUP2 PUSH2 0x1A7F JUMP JUMPDEST SWAP3 SWAP2 POP POP JUMP JUMPDEST PUSH0 PUSH1 0x20 DUP3 DUP5 SUB SLT ISZERO PUSH2 0x1ABE JUMPI PUSH2 0x1ABD PUSH2 0x1911 JUMP JUMPDEST JUMPDEST PUSH0 PUSH2 0x1ACB DUP5 DUP3 DUP6 ADD PUSH2 0x1A95 JUMP JUMPDEST SWAP2 POP POP SWAP3 SWAP2 POP POP JUMP JUMPDEST PUSH0 PUSH20 0xFFFFFFFFFFFFFFFFFFFFFFFFFFFFFFFFFFFFFFFF DUP3 AND SWAP1 POP SWAP2 SWAP1 POP JUMP JUMPDEST PUSH0 PUSH2 0x1AFD DUP3 PUSH2 0x1AD4 JUMP JUMPDEST SWAP1 POP SWAP2 SWAP1 POP JUMP JUMPDEST PUSH2 0x1B0D DUP2 PUSH2 0x1AF3 JUMP JUMPDEST DUP3 MSTORE POP POP JUMP JUMPDEST PUSH0 PUSH1 0x20 DUP3 ADD SWAP1 POP PUSH2 0x1B26 PUSH0 DUP4 ADD DUP5 PUSH2 0x1B04 JUMP JUMPDEST SWAP3 SWAP2 POP POP JUMP JUMPDEST PUSH2 0x1B35 DUP2 PUSH2 0x1AF3 JUMP JUMPDEST DUP2 EQ PUSH2 0x1B3F JUMPI PUSH0 DUP1 REVERT JUMPDEST POP JUMP JUMPDEST PUSH0 DUP2 CALLDATALOAD SWAP1 POP PUSH2 0x1B50 DUP2 PUSH2 0x1B2C JUMP JUMPDEST SWAP3 SWAP2 POP POP JUMP JUMPDEST PUSH0 DUP1 PUSH1 0x40 DUP4 DUP6 SUB SLT ISZERO PUSH2 0x1B6C JUMPI PUSH2 0x1B6B PUSH2 0x1911 JUMP JUMPDEST JUMPDEST PUSH0 PUSH2 0x1B79 DUP6 DUP3 DUP7 ADD PUSH2 0x1B42 JUMP JUMPDEST SWAP3 POP POP PUSH1 0x20 PUSH2 0x1B8A DUP6 DUP3 DUP7 ADD PUSH2 0x1A95 JUMP JUMPDEST SWAP2 POP POP SWAP3 POP SWAP3 SWAP1 POP JUMP JUMPDEST PUSH0 DUP1 PUSH0 PUSH1 0x60 DUP5 DUP7 SUB SLT ISZERO PUSH2 0x1BAB JUMPI PUSH2 0x1BAA PUSH2 0x1911 JUMP JUMPDEST JUMPDEST PUSH0 PUSH2 0x1BB8 DUP7 DUP3 DUP8 ADD PUSH2 0x1B42 JUMP JUMPDEST SWAP4 POP POP PUSH1 0x20 PUSH2 0x1BC9 DUP7 DUP3 DUP8 ADD PUSH2 0x1B42 JUMP JUMPDEST SWAP3 POP POP PUSH1 0x40 PUSH2 0x1BDA DUP7 DUP3 DUP8 ADD PUSH2 0x1A95 JUMP JUMPDEST SWAP2 POP POP SWAP3 POP SWAP3 POP SWAP3 JUMP JUMPDEST PUSH0 PUSH1 0x20 DUP3 DUP5 SUB SLT ISZERO PUSH2 0x1BF9 JUMPI PUSH2 0x1BF8 PUSH2 0x1911 JUMP JUMPDEST JUMPDEST PUSH0 PUSH2 0x1C06 DUP5 DUP3 DUP6 ADD PUSH2 0x1B42 JUMP JUMPDEST SWAP2 POP POP SWAP3 SWAP2 POP POP JUMP JUMPDEST PUSH2 0x1C18 DUP2 PUSH2 0x1A76 JUMP JUMPDEST DUP3 MSTORE POP POP JUMP JUMPDEST PUSH0 PUSH1 0x20 DUP3 ADD SWAP1 POP PUSH2 0x1C31 PUSH0 DUP4 ADD DUP5 PUSH2 0x1C0F JUMP JUMPDEST SWAP3 SWAP2 POP POP JUMP JUMPDEST PUSH2 0x1C40 DUP2 PUSH2 0x1999 JUMP JUMPDEST DUP2 EQ PUSH2 0x1C4A JUMPI PUSH0 DUP1 REVERT JUMPDEST POP JUMP JUMPDEST PUSH0 DUP2 CALLDATALOAD SWAP1 POP PUSH2 0x1C5B DUP2 PUSH2 0x1C37 JUMP JUMPDEST SWAP3 SWAP2 POP POP JUMP JUMPDEST PUSH0 DUP1 PUSH1 0x40 DUP4 DUP6 SUB SLT ISZERO PUSH2 0x1C77 JUMPI PUSH2 0x1C76 PUSH2 0x1911 JUMP JUMPDEST JUMPDEST PUSH0 PUSH2 0x1C84 DUP6 DUP3 DUP7 ADD PUSH2 0x1B42 JUMP JUMPDEST SWAP3 POP POP PUSH1 0x20 PUSH2 0x1C95 DUP6 DUP3 DUP7 ADD PUSH2 0x1C4D JUMP JUMPDEST SWAP2 POP POP SWAP3 POP SWAP3 SWAP1 POP JUMP JUMPDEST PUSH0 DUP1 REVERT JUMPDEST PUSH0 DUP1 REVERT JUMPDEST PUSH32 0x4E487B7100000000000000000000000000000000000000000000000000000000 PUSH0 MSTORE PUSH1 0x41 PUSH1 0x4 MSTORE PUSH1 0x24 PUSH0 REVERT JUMPDEST PUSH2 0x1CDD DUP3 PUSH2 0x1A0E JUMP JUMPDEST DUP2 ADD DUP2 DUP2 LT PUSH8 0xFFFFFFFFFFFFFFFF DUP3 GT OR ISZERO PUSH2 0x1CFC JUMPI PUSH2 0x1CFB PUSH2 0x1CA7 JUMP JUMPDEST JUMPDEST DUP1 PUSH1 0x40 MSTORE POP POP POP JUMP JUMPDEST PUSH0 PUSH2 0x1D0E PUSH2 0x1908 JUMP JUMPDEST SWAP1 POP PUSH2 0x1D1A DUP3 DUP3 PUSH2 0x1CD4 JUMP JUMPDEST SWAP2 SWAP1 POP JUMP JUMPDEST PUSH0 PUSH8 0xFFFFFFFFFFFFFFFF DUP3 GT ISZERO PUSH2 0x1D39 JUMPI PUSH2 0x1D38 PUSH2 0x1CA7 JUMP JUMPDEST JUMPDEST PUSH2 0x1D42 DUP3 PUSH2 0x1A0E JUMP JUMPDEST SWAP1 POP PUSH1 0x20 DUP2 ADD SWAP1 POP SWAP2 SWAP1 POP JUMP JUMPDEST DUP3 DUP2 DUP4 CALLDATACOPY PUSH0 DUP4 DUP4 ADD MSTORE POP POP POP JUMP JUMPDEST PUSH0 PUSH2 0x1D6F PUSH2 0x1D6A DUP5 PUSH2 0x1D1F JUMP JUMPDEST PUSH2 0x1D05 JUMP JUMPDEST SWAP1 POP DUP3 DUP2 MSTORE PUSH1 0x20 DUP2 ADD DUP5 DUP5 DUP5 ADD GT ISZERO PUSH2 0x1D8B JUMPI PUSH2 0x1D8A PUSH2 0x1CA3 JUMP JUMPDEST JUMPDEST PUSH2 0x1D96 DUP5 DUP3 DUP6 PUSH2 0x1D4F JUMP JUMPDEST POP SWAP4 SWAP3 POP POP POP JUMP JUMPDEST PUSH0 DUP3 PUSH1 0x1F DUP4 ADD SLT PUSH2 0x1DB2 JUMPI PUSH2 0x1DB1 PUSH2 0x1C9F JUMP JUMPDEST JUMPDEST DUP2 CALLDATALOAD PUSH2 0x1DC2 DUP5 DUP3 PUSH1 0x20 DUP7 ADD PUSH2 0x1D5D JUMP JUMPDEST SWAP2 POP POP SWAP3 SWAP2 POP POP JUMP JUMPDEST PUSH0 DUP1 PUSH0 DUP1 PUSH1 0x80 DUP6 DUP8 SUB SLT ISZERO PUSH2 0x1DE3 JUMPI PUSH2 0x1DE2 PUSH2 0x1911 JUMP JUMPDEST JUMPDEST PUSH0 PUSH2 0x1DF0 DUP8 DUP3 DUP9 ADD PUSH2 0x1B42 JUMP JUMPDEST SWAP5 POP POP PUSH1 0x20 PUSH2 0x1E01 DUP8 DUP3 DUP9 ADD PUSH2 0x1B42 JUMP JUMPDEST SWAP4 POP POP PUSH1 0x40 PUSH2 0x1E12 DUP8 DUP3 DUP9 ADD PUSH2 0x1A95 JUMP JUMPDEST SWAP3 POP POP PUSH1 0x60 DUP6 ADD CALLDATALOAD PUSH8 0xFFFFFFFFFFFFFFFF DUP2 GT ISZERO PUSH2 0x1E33 JUMPI PUSH2 0x1E32 PUSH2 0x1915 JUMP JUMPDEST JUMPDEST PUSH2 0x1E3F DUP8 DUP3 DUP9 ADD PUSH2 0x1D9E JUMP JUMPDEST SWAP2 POP POP SWAP3 SWAP6 SWAP2 SWAP5 POP SWAP3 POP JUMP JUMPDEST PUSH0 DUP1 PUSH1 0x40 DUP4 DUP6 SUB SLT ISZERO PUSH2 0x1E61 JUMPI PUSH2 0x1E60 PUSH2 0x1911 JUMP JUMPDEST JUMPDEST PUSH0 PUSH2 0x1E6E DUP6 DUP3 DUP7 ADD PUSH2 0x1B42 JUMP JUMPDEST SWAP3 POP POP PUSH1 0x20 PUSH2 0x1E7F DUP6 DUP3 DUP7 ADD PUSH2 0x1B42 JUMP JUMPDEST SWAP2 POP POP SWAP3 POP SWAP3 SWAP1 POP JUMP JUMPDEST PUSH32 0x4E487B7100000000000000000000000000000000000000000000000000000000 PUSH0 MSTORE PUSH1 0x22 PUSH1 0x4 MSTORE PUSH1 0x24 PUSH0 REVERT JUMPDEST PUSH0 PUSH1 0x2 DUP3 DIV SWAP1 POP PUSH1 0x1 DUP3 AND DUP1 PUSH2 0x1ECD JUMPI PUSH1 0x7F DUP3 AND SWAP2 POP JUMPDEST PUSH1 0x20 DUP3 LT DUP2 SUB PUSH2 0x1EE0 JUMPI PUSH2 0x1EDF PUSH2 0x1E89 JUMP JUMPDEST JUMPDEST POP SWAP2 SWAP1 POP JUMP JUMPDEST PUSH0 PUSH1 0x60 DUP3 ADD SWAP1 POP PUSH2 0x1EF9 PUSH0 DUP4 ADD DUP7 PUSH2 0x1B04 JUMP JUMPDEST PUSH2 0x1F06 PUSH1 0x20 DUP4 ADD DUP6 PUSH2 0x1C0F JUMP JUMPDEST PUSH2 0x1F13 PUSH1 0x40 DUP4 ADD DUP5 PUSH2 0x1B04 JUMP JUMPDEST SWAP5 SWAP4 POP POP POP POP JUMP JUMPDEST PUSH32 0x7175616E74697479206D75737420626520310000000000000000000000000000 PUSH0 DUP3 ADD MSTORE POP JUMP JUMPDEST PUSH0 PUSH2 0x1F4F PUSH1 0x12 DUP4 PUSH2 0x19D6 JUMP JUMPDEST SWAP2 POP PUSH2 0x1F5A DUP3 PUSH2 0x1F1B JUMP JUMPDEST PUSH1 0x20 DUP3 ADD SWAP1 POP SWAP2 SWAP1 POP JUMP JUMPDEST PUSH0 PUSH1 0x20 DUP3 ADD SWAP1 POP DUP2 DUP2 SUB PUSH0 DUP4 ADD MSTORE PUSH2 0x1F7C DUP2 PUSH2 0x1F43 JUMP JUMPDEST SWAP1 POP SWAP2 SWAP1 POP JUMP JUMPDEST PUSH32 0x6D7573742070617920302E303120657468657200000000000000000000000000 PUSH0 DUP3 ADD MSTORE POP JUMP JUMPDEST PUSH0 PUSH2 0x1FB7 PUSH1 0x13 DUP4 PUSH2 0x19D6 JUMP JUMPDEST SWAP2 POP PUSH2 0x1FC2 DUP3 PUSH2 0x1F83 JUMP JUMPDEST PUSH1 0x20 DUP3 ADD SWAP1 POP SWAP2 SWAP1 POP JUMP JUMPDEST PUSH0 PUSH1 0x20 DUP3 ADD SWAP1 POP DUP2 DUP2 SUB PUSH0 DUP4 ADD MSTORE PUSH2 0x1FE4 DUP2 PUSH2 0x1FAB JUMP JUMPDEST SWAP1 POP SWAP2 SWAP1 POP JUMP JUMPDEST PUSH32 0x4E487B7100000000000000000000000000000000000000000000000000000000 PUSH0 MSTORE PUSH1 0x11 PUSH1 0x4 MSTORE PUSH1 0x24 PUSH0 REVERT JUMPDEST PUSH0 PUSH2 0x2022 DUP3 PUSH2 0x1A76 JUMP JUMPDEST SWAP2 POP PUSH32 0xFFFFFFFFFFFFFFFFFFFFFFFFFFFFFFFFFFFFFFFFFFFFFFFFFFFFFFFFFFFFFFFF DUP3 SUB PUSH2 0x2054 JUMPI PUSH2 0x2053 PUSH2 0x1FEB JUMP JUMPDEST JUMPDEST PUSH1 0x1 DUP3 ADD SWAP1 POP SWAP2 SWAP1 POP JUMP JUMPDEST PUSH0 DUP2 SWAP1 POP SWAP3 SWAP2 POP POP JUMP JUMPDEST PUSH0 PUSH2 0x2073 DUP3 PUSH2 0x19CC JUMP JUMPDEST PUSH2 0x207D DUP2 DUP6 PUSH2 0x205F JUMP JUMPDEST SWAP4 POP PUSH2 0x208D DUP2 DUP6 PUSH1 0x20 DUP7 ADD PUSH2 0x19E6 JUMP JUMPDEST DUP1 DUP5 ADD SWAP2 POP POP SWAP3 SWAP2 POP POP JUMP JUMPDEST PUSH0 PUSH2 0x20A4 DUP3 DUP6 PUSH2 0x2069 JUMP JUMPDEST SWAP2 POP PUSH2 0x20B0 DUP3 DUP5 PUSH2 0x2069 JUMP JUMPDEST SWAP2 POP DUP2 SWAP1 POP SWAP4 SWAP3 POP POP POP JUMP JUMPDEST PUSH0 DUP2 MLOAD SWAP1 POP SWAP2 SWAP1 POP JUMP JUMPDEST PUSH0 DUP3 DUP3 MSTORE PUSH1 0x20 DUP3 ADD SWAP1 POP SWAP3 SWAP2 POP POP JUMP JUMPDEST PUSH0 PUSH2 0x20E0 DUP3 PUSH2 0x20BC JUMP JUMPDEST PUSH2 0x20EA DUP2 DUP6 PUSH2 0x20C6 JUMP JUMPDEST SWAP4 POP PUSH2 0x20FA DUP2 DUP6 PUSH1 0x20 DUP7 ADD PUSH2 0x19E6 JUMP JUMPDEST PUSH2 0x2103 DUP2 PUSH2 0x1A0E JUMP JUMPDEST DUP5 ADD SWAP2 POP POP SWAP3 SWAP2 POP POP JUMP JUMPDEST PUSH0 PUSH1 0x80 DUP3 ADD SWAP1 POP PUSH2 0x2121 PUSH0 DUP4 ADD DUP8 PUSH2 0x1B04 JUMP JUMPDEST PUSH2 0x212E PUSH1 0x20 DUP4 ADD DUP7 PUSH2 0x1B04 JUMP JUMPDEST PUSH2 0x213B PUSH1 0x40 DUP4 ADD DUP6 PUSH2 0x1C0F JUMP JUMPDEST DUP2 DUP2 SUB PUSH1 0x60 DUP4 ADD MSTORE PUSH2 0x214D DUP2 DUP5 PUSH2 0x20D6 JUMP JUMPDEST SWAP1 POP SWAP6 SWAP5 POP POP POP POP POP JUMP JUMPDEST PUSH0 DUP2 MLOAD SWAP1 POP PUSH2 0x2166 DUP2 PUSH2 0x1944 JUMP JUMPDEST SWAP3 SWAP2 POP POP JUMP JUMPDEST PUSH0 PUSH1 0x20 DUP3 DUP5 SUB SLT ISZERO PUSH2 0x2181 JUMPI PUSH2 0x2180 PUSH2 0x1911 JUMP JUMPDEST JUMPDEST PUSH0 PUSH2 0x218E DUP5 DUP3 DUP6 ADD PUSH2 0x2158 JUMP JUMPDEST SWAP2 POP POP SWAP3 SWAP2 POP POP JUMP JUMPDEST PUSH32 0x4E487B7100000000000000000000000000000000000000000000000000000000 PUSH0 MSTORE PUSH1 0x12 PUSH1 0x4 MSTORE PUSH1 0x24 PUSH0 REVERT JUMPDEST PUSH0 PUSH1 0x40 DUP3 ADD SWAP1 POP PUSH2 0x21D7 PUSH0 DUP4 ADD DUP6 PUSH2 0x1B04 JUMP JUMPDEST PUSH2 0x21E4 PUSH1 0x20 DUP4 ADD DUP5 PUSH2 0x1C0F JUMP JUMPDEST SWAP4 SWAP3 POP POP POP JUMP INVALID LOG2 PUSH5 0x6970667358 0x22 SLT KECCAK256 SHR SSTORE DUP9 0x29 0xEC PUSH4 0x7EAD7031 PUSH27 0xC1A8399522FA6A5275A6D85ED916EB9D66A12B7B3A64736F6C6343 STOP ADDMOD XOR STOP CALLER LOG2 PUSH5 0x6970667358 0x22 SLT KECCAK256 SAR SGT 0xD2 LOG3 PUSH3 0x1F7EC1 DUP4 0xA6 0xB7 0xF STOP 0xC2 PUSH8 0x7E3607001ADFBDF2 0xDC STATICCALL 0xC5 0x29 0xD7 CREATE SWAP1 PUSH28 0x4264736F6C6343000818003300000000000000000000000000000000 "
		},
		"gasEstimates": {
			"creation": {
				"codeDepositCost": "2609400",
				"executionCost": "2822",
				"totalCost": "2612222"
			},
			"external": {
				"beforeAll()": "infinite",
				"testMint()": "infinite",
				"testTokenNameAndSymbol()": "infinite"
			}
		},
		"methodIdentifiers": {
			"beforeAll()": "7fea0d4b",
			"testMint()": "9642ddaf",
			"testTokenNameAndSymbol()": "218e00ff"
		}
	},
	"abi": [
		{
			"inputs": [],
			"name": "beforeAll",
			"outputs": [],
			"stateMutability": "nonpayable",
			"type": "function"
		},
		{
			"inputs": [],
			"name": "testMint",
			"outputs": [],
			"stateMutability": "payable",
			"type": "function"
		},
		{
			"inputs": [],
			"name": "testTokenNameAndSymbol",
			"outputs": [],
			"stateMutability": "nonpayable",
			"type": "function"
		}
	]
}